S00C0000626F6F742E7372656364
S21401E0000C9446F00C9463F00C9463F00C9463F05B
S21401E0100C9463F00C9463F00C9463F00C9463F02E
S21401E0200C9463F00C9463F00C9463F00C9463F01E
S21401E0300C9463F00C9463F00C9463F00C9463F00E
S21401E0400C9463F00C9463F00C9463F00C9463F0FE
S21401E0500C9463F00C9463F00C9463F00C9463F0EE
S21401E0600C9463F00C9463F00C9463F00C9463F0DE
S21401E0700C9463F00C9463F00C9463F00C9463F0CE
S21401E0800C9463F00C9463F00C9463F011241FBE9F
S21401E090CFEFD0E1DEBFCDBF11E0A0E0B1E0E6E01A
S21401E0A0F4EF01E00BBF02C007900D92A030B1075C
S21401E0B0D9F712E0A0E0B1E001C01D92A839B1077E
S21401E0C0E1F70C9442F70C9400F0F92FE82FD8955D
S21401E0D0902DE395D895802D08952F93F92FE82F4D
S21401E0E029E020936800D895802D2F9108950F92EE
S21401E0F01F922F933F936F937F938F939F93CF930B
S21401E100DF93EF93FF93F92FE82FD72FC62F23E046
S21401E11021D060E00990199021E03091680030FD2F
S21401E120FCCF20936800E895E395E395625091F75C
S21401E130F92FE82F25E00ED0FF91EF91DF91CF91D7
S21401E1409F918F917F916F913F912F911F900F908B
S21401E150089521E13091680030FDFCCF20936800DE
S21401E160E8950895CF93DF93CDB7DEB78091380059
S21401E17080648093380080913800806880933800EE
S21401E18080913700806280933700809138008F7DC0
S21401E190809338001092900087E08093290088E1F0
S21401E1A080932A0086E080939500DF91CF910895B1
S21401E1B0CF93DF93CDB7DEB721970FB6F894DEBFC6
S21401E1C00FBECDBF898380912B00992780729070F6
S21401E1D00097C9F3898180932C0021960FB6F89495
S21401E1E0DEBF0FBECDBFDF91CF910895CF93DF93F2
S21401E1F0CDB7DEB7000080912B008823E4F780912D
S21401E2002C009927DF91CF910895CF93DF93CDB757
S21401E210DEB722970FB6F894DEBF0FBECDBF809152
S21401E2202B0088232CF481E090E089839A8302C036
S21401E23019821A8289819A8122960FB6F894DEBFD6
S21401E2400FBECDBFDF91CF910895CF93DF93CDB7AA
S21401E250DEB721970FB6F894DEBF0FBECDBF898318
S21401E260898180935F0021960FB6F894DEBF0FBEBA
S21401E270CDBFDF91CF910895CF93DF93CDB7DEB7B2
S21401E28021970FB6F894DEBF0FBECDBF80915F0019
S21401E2908983F8948981992721960FB6F894DEBF71
S21401E2A00FBECDBFDF91CF910895CF93DF93CDB74A
S21401E2B0DEB726970FB6F894DEBF0FBECDBF8983B3
S21401E2C09A836B837C834D831E829E818D819817F2
S21401E2D008F028C080913C009927827090700097C2
S21401E2E0C9F78E81282F33278B819C81820F931F3C
S21401E2F090933F0080933E0080913C008160809324
S21401E3003C00DE0116964C91842F282F33278981F5
S21401E3109A81F901E80FF91F80913D0080834F5FD4
S21401E3204C93D3CF80E090E026960FB6F894DEBFEC
S21401E3300FBECDBFDF91CF910895CF93DF93CDB7B9
S21401E340DEB726970FB6F894DEBF0FBECDBF898322
S21401E3509A836B837C834D831E829E818D81981761
S21401E36008F031C080913C00992782709070009728
S21401E370C9F7000080916800992781709070009716
S21401E380C9F78E81282F33278B819C81820F931F9B
S21401E39090933F0080933E00DE0116964C91842FA9
S21401E3A0282F332789819A81F901E80FF91F808187
S21401E3B080933D004F5F4C9384E080933C0086E061
S21401E3C080933C00CACF80E090E026960FB6F89482
S21401E3D0DEBF0FBECDBFDF91CF910895CF93DF9300
S21401E3E0CDB7DEB722970FB6F894DEBF0FBECDBF0E
S21401E3F089839A8389819A81009709F40AC000006B
S21401E40000000000000089819A81019789839A8320
S21401E410F1CF22960FB6F894DEBF0FBECDBFDF91C7
S21401E420CF910895CF93DF93CDB7DEB780913A00B1
S21401E430886080933A0080913B00886080933B001F
S21401E440809132008F7D809332008091310080620E
S21401E45080933100809132008B7F809332008091CF
S21401E46031008B7F809331008091320088608093E9
S21401E47032008091310088608093310080E29EE412
S21401E4800E94EEF1DF91CF910895CF93DF93CDB740
S21401E490DEB7809132008F7D8093320080913B0001
S21401E4A0877F80933B00DF91CF910895CF93DF93D1
S21401E4B0CDB7DEB780913B00886080933B00DF914B
S21401E4C0CF910895CF93DF93CDB7DEB722970FB6DE
S21401E4D0F894DEBF0FBECDBF198280913200877DD2
S21401E4E08A838A81809332008981959A829980688D
S21401E4F089838A81809332008981959A8299806482
S21401E50089838A81809332008981959A8299806273
S21401E51089838A81809332008981959A8299806164
S21401E52089838A81809332008981959A829988604D
S21401E53089838A81809332008981959A8299846041
S21401E54089838A81809332008981959A8299826033
S21401E55089838A81809332008981959A8299816024
S21401E56089838981992722960FB6F894DEBF0FBE5C
S21401E570CDBFDF91CF910895CF93DF93CDB7DEB7AF
S21401E58023970FB6F894DEBF0FBECDBF89831A82DC
S21401E59080913200877D8B838B81809332009A81B4
S21401E5A0898187FD939A959A892F8A838B81809397
S21401E5B032009A81898186FD939A959A892F8A835A
S21401E5C08B81809332009A81898185FD939A959AF1
S21401E5D0892F8A838B81809332009A81898184FD79
S21401E5E0939A959A892F8A838B81809332009A8198
S21401E5F0898183FD939A959A892F8A838B8180934B
S21401E60032009A81898182FD939A959A892F8A830D
S21401E6108B81809332009A81898181FD939A959AA4
S21401E620892F8A838B81809332009A81898180FD2C
S21401E630939A959A892F8A838A81992723960FB66A
S21401E640F894DEBF0FBECDBFDF91CF910895CF9373
S21401E650DF93CDB7DEB764970FB6F894DEBF0FBE73
S21401E660CDBF89839A836B837C834D835E832F839F
S21401E670388788EE898789819A81880F892F881F34
S21401E680990B91958A878981282F220F8B819C81EE
S21401E690892F9927822B8B878B818C871D861E86D7
S21401E6A01F86188A8D819E81898B9A8B0E9445F2DE
S21401E6B01B8A1C8A8B899C898830910508F011C0B9
S21401E6C09E01275F3F4F8B899C89F901E80FF91F4F
S21401E6D080810E94BCF28B899C8901968B8B9C8BD6
S21401E6E0E9CF1B8A1C8A2B893C898F81988528173C
S21401E6F0390708F011C00E9462F2482F29893A8929
S21401E7008B899C89F901E80FF91F40838B899C89C5
S21401E71001968B8B9C8BE7CF0E9456F264960FB6C0
S21401E720F894DEBF0FBECDBFDF91CF910895CF9392
S21401E730DF93CDB7DEB723970FB6F894DEBF0FBED3
S21401E740CDBF89839A831B828B81823008F007C0F4
S21401E75083E50E94D8F08B818F5F8B83F5CFE981AB
S21401E760FA8182810E94D8F01B82E981FA819B811D
S21401E7708281981708F00FC029813A818B819927E9
S21401E780820F931FFC01339680810E94D8F08B8103
S21401E7908F5F8B83EACF80E090E023960FB6F894E4
S21401E7A0DEBF0FBECDBFDF91CF9108950F931F93AC
S21401E7B0CF93DF93CDB7DEB723970FB6F894DEBFBE
S21401E7C00FBECDBF89839A831B828B81823008F06E
S21401E7D006C00E94F6F08B818F5F8B83F6CF09818E
S21401E7E01A810E94F6F0F80182831B82E981FA8180
S21401E7F09B818281981708F011C029813A818B810B
S21401E8009927820F931F8C010D5F1F4F0E94F6F010
S21401E810F80180838B818F5F8B83E8CF80E090E067
S21401E82023960FB6F894DEBF0FBECDBFDF91CF9112
S21401E8301F910F910895CF93DF93CDB7DEB722973F
S21401E8400FB6F894DEBF0FBECDBF89839A83898148
S21401E8509A812FE78F3F920730F080915B008160AD
S21401E86080935B0005C080915B008E7F80935B0088
S21401E87089819A81880F991F89839A8389819A81D0
S21401E88022960FB6F894DEBF0FBECDBFDF91CF91B3
S21401E8900895CF93DF93CDB7DEB724970FB6F894DC
S21401E8A0DEBF0FBECDBF89839A8380913B008B7FED
S21401E8B080933B0089819A81FC0134968081918105
S21401E8C090938D0180938C0181E0809345018FE6C2
S21401E8D08093460183E491E00E9497F310929101A0
S21401E8E01092900110928B0110928A012091900152
S21401E8F03091910180918C0190918D0128173907F3
S21401E90008F0ACC01C8280E091E00E94D6F38091B2
S21401E9109001909191019695879590938B018093A4
S21401E9208A0180910301909104019093870180935D
S21401E930860110928F0110928E0180918E01909126
S21401E9408F018F3F910511F008F037C080E091E00C
S21401E9500E94D6F31B829B8180910201981708F0D2
S21401E96017C08B81282F332780918E0190918F01BC
S21401E970820F931FDC01A856BE4F8B819927FC019D
S21401E980ED5FFE4F80818C938B818F5F8B83E3CF0E
S21401E99080910201282F332780918E0190918F015B
S21401E9A0820F931F90938F0180938E0180910201B5
S21401E9B0803418F6809102018C8380918A019091AF
S21401E9C08B010E941BF468E971E00E9477F081E0F8
S21401E9D08093450180910201803478F480918C0106
S21401E9E090918D012091900130919101821B930BA2
S21401E9F0909389018093880108C080918E0190913F
S21401EA008F019093890180938801609188017091AC
S21401EA10890188E991E00E944AF99C01809186016A
S21401EA20909187012817390721F08FEF80934601CF
S21401EA3002C01092460183E491E00E9497F3809110
S21401EA4090019091910120918E0130918F01820F5A
S21401EA50931F909391018093900148CF81E080931A
S21401EA60450182E78093460183E491E00E9497F393
S21401EA7080913B00846080933B0024960FB6F89407
S21401EA80DEBF0FBECDBFDF91CF910895CF93DF9349
S21401EA90CDB7DEB7C354D0400FB6F894DEBF0FBE75
S21401EAA0CDBF10925B000E94A9F084E08B8380E0CA
S21401EAB090E00E946DF08C8383E090E00E946DF000
S21401EAC08D8382E090E00E946DF08E8381E090E07D
S21401EAD00E946DF08F83CE0101960E9497F3CD5B65
S21401EAE0DF4F0FB6F894DEBF0FBECDBFDF91CF91DB
S21401EAF00895CF93DF93CDB7DEB7C954D0400FB694
S21401EB00F894DEBF0FBECDBFFE01EA5BFF4F108259
S21401EB10118280E090E00E941BF40E94A9F082E03E
S21401EB208B83FE01EC5BFF4F10821182FE01EC5BD2
S21401EB30FF4F808191818F3F910511F008F033C01E
S21401EB40FE01EA5BFF4F808191810E9465F0FE0124
S21401EB50E85BFF4F80839183FE01E85BFF4F808176
S21401EB609181892F99270E94D8F0FE01E85BFF4F1B
S21401EB7080810E94D8F0DE01AA5BBF4FFE01EA5BEE
S21401EB80FF4F8081918102968D939C93DE01AC5B51
S21401EB90BF4FFE01EC5BFF4F8081918102968D9302
S21401EBA09C931197C3CFC75BDF4F0FB6F894DEBFB8
S21401EBB00FBECDBFDF91CF910895CF93DF93CDB731
S21401EBC0DEB722970FB6F894DEBF0FBECDBF89839E
S21401EBD0898182958F708A838A81893028F08A811B
S21401EBE0805D0E94D8F004C08A81895C0E94D8F0BA
S21401EBF089818F708A838A81893028F08A81805D35
S21401EC000E94D8F004C08A81895C0E94D8F02296BE
S21401EC100FB6F894DEBF0FBECDBFDF91CF9108953A
S21401EC20CF93DF93CDB7DEB722970FB6F894DEBF4A
S21401EC300FBECDBF89839A8346E060E070E089818C
S21401EC409A810E9455F122960FB6F894DEBF0FBE48
S21401EC50CDBFDF91CF910895CF93DF93CDB7DEB7C8
S21401EC6022970FB6F894DEBF0FBECDBF89839A8375
S21401EC7046E060E070E089819A810E949DF12296CB
S21401EC800FB6F894DEBF0FBECDBFDF91CF910895CA
S21401EC90CF93DF93CDB7DEB722970FB6F894DEBFDA
S21401ECA00FBECDBF89839A83E981FA8114821582CA
S21401ECB0E981FA811282138289819A810E942CF657
S21401ECC022960FB6F894DEBF0FBECDBFDF91CF916F
S21401ECD00895CF93DF93CDB7DEB7CD54D0400FB6AE
S21401ECE0F894DEBF0FBECDBF89839A831B821C8238
S21401ECF083E089870E9412F280913B008B7F80938C
S21401ED003B001B821C82E981FA812B813C81848134
S21401ED1095812817390708F059C0FE01E65BFF4FB9
S21401ED208B819C8128E031E0B9010E94EFF9CB018B
S21401ED3080839183FE01E45BFF4F8B819C8128E0F9
S21401ED4031E0B9010E94EFF980839183E981FA816C
S21401ED50248135818B819C81281B390BC9018F3F0A
S21401ED60910531F028F080E091E08D839E830BC001
S21401ED70E981FA81248135818B819C81281B390B9D
S21401ED80C9018D839E83FE01E45BFF4FDE01A65B16
S21401ED90BF4F2D813E8148E951E0608171818D919F
S21401EDA09C910E9427F38B819C81969587950E9462
S21401EDB01BF468E971E00E9477F02B813C818D811C
S21401EDC09E81820F931F8B839C839DCF80913B00F6
S21401EDD0846080933B00C35BDF4F0FB6F894DEBFC1
S21401EDE00FBECDBFDF91CF910895CF93DF93CDB7FF
S21401EDF0DEB723970FB6F894DEBF0FBECDBF89836B
S21401EE009A836B83E981FA8181E08283E981FA81C1
S21401EE108B81838389819A810E9497F323960FB60B
S21401EE20F894DEBF0FBECDBFDF91CF910895CF938B
S21401EE30DF93CDB7DEB724970FB6F894DEBF0FBECB
S21401EE40CDBF89839A836B837C83E981FA8183E0D2
S21401EE508283E981FA8185EF838389819A81FC0126
S21401EE6033968B819C818083918389819A810E94CC
S21401EE7097F324960FB6F894DEBF0FBECDBFDF9191
S21401EE80CF910895C4EBD0E1DEBFCDBFFE01EB5BB1
S21401EE90FF4F10821182FE01E95BFF4F1082118243
S21401EEA0F89480913A00876080933A0080913B0005
S21401EEB08E7F80933B0080913B00826080933B0075
S21401EEC080913B00846080933B000E94B2F068EC26
S21401EED0CE0101960E94F5F68E010C5B1F4F0E9433
S21401EEE005F1F8018083F80180818823B9F4FE01D9
S21401EEF0EB5BFF4F80819181FFEF8F3F9F0709F406
S21401EF000DC0DE01AB5BBF4FFE01EB5BFF4F8081A7
S21401EF10918101968D939C931197DECF80913B0052
S21401EF20816080933B0080913B00826080933B0030
S21401EF3080913B00846080933B0082E991E00E94CF
S21401EF4010F68091960190919701009709F45EC0A2
S21401EF50FE01EC5BFF4F80818C3C09F457C0FE013B
S21401EF60E75BFF4F8FEF8083809168009927817060
S21401EF7090700097C9F7000080913C009927827035
S21401EF8090700097C9F789E0FE01E75BFF4F90811B
S21401EF90E1E0F0E0092E80936800E89582E991E0CF
S21401EFA00E9469F682E991E00E9448F682E991E0C2
S21401EFB00E942CF6809168009927807490700097C3
S21401EFC009F415C00000809168009927817090703F
S21401EFD00097C9F7000080913C00992782709070D5
S21401EFE00097C9F781E180936800E895E3CF0000B8
S21401EFF0809168009927817090700097C9F7FE018B
S21401F000E95BFF4F0190F081E02D0995FE01EB5B76
S21401F010FF4F808191812FEF8F3F920709F44CC0FB
S21401F020CE0101960E94D6F380913B008B7F8093A0
S21401F0303B00FE01EC5BFF4F8C818083FE01EC5BA5
S21401F040FF4F8081893C99F1FE01EC5BFF4F808187
S21401F0508C3C69F1809168009927807490700097C4
S21401F06009F415C00000809168009927817090709E
S21401F0700097C9F7000080913C0099278270907034
S21401F0800097C9F781E180936800E895E3CF000017
S21401F090809168009927817090700097C9F7FE01EA
S21401F0A0E95BFF4F0190F081E02D099505C0809145
S21401F0B03B008B7F80933B00FE01EB5BFF4F808123
S21401F0C091813FEF8F3F930791F5FE01EC5BFF4F78
S21401F0D080818C3C61F180916800992780749070E2
S21401F0E0009709F415C00000809168009927817087
S21401F0F090700097C9F7000080913C0099278270B4
S21401F10090700097C9F781E180936800E895E3CF96
S21401F1100000809168009927817090700097C9F768
S21401F120FE01E95BFF4F0190F081E02D099500009B
S21401F130CE0101960E94D6F3FE01EC5BFF4F8C8157
S21401F1408083FE01EC5BFF4F8081E82FFF272C9622
S21401F150EEAFFFAF2C972C962EAD3FAD2C972330FC
S21401F160310509F43FC02C968EAD9FAD2C978430A7
S21401F17091057CF42C96EEADFFAD2C97E130F105B0
S21401F18039F12C962EAD3FAD2C972230310569F121
S21401F1907BC02C968EAD9FAD2C97893C910509F4CA
S21401F1A068C02C96EEADFFAD2C97EA3CF10544F411
S21401F1B02C962EAD3FAD2C972430310539F164C025
S21401F1C02C968EAD9FAD2C978C3C910589F05CC03A
S21401F1D080913B008E7F80933B00CE0101960E947A
S21401F1E049F4A6CF0E9446F5A3CF0E9479F5A0CF99
S21401F1F082E991E00E9410F682E991E00E9448F6C9
S21401F2006EECCE0101960E94F5F692CF0000809139
S21401F2106800992780749070009709F415C0000063
S21401F220809168009927817090700097C9F7000057
S21401F23080913C009927827090700097C9F781E110
S21401F24080936800E895E3CF0000809168009927D5
S21401F250817090700097C9F764E0CE0101960E9414
S21401F260F5F6FE01E95BFF4F0190F081E02D09956F
S21401F2705FCF80913B008D7F80933B006DECCE018C
S21401F28001960E94F5F654CF64E6CE0101960E94DF
S21401F290F5F64ECFCF93DF93CDB7DEB760970FB6B7
S21401F2A0F894DEBF0FBECDBF89839A836B837C83C0
S21401F2B08FEF9FEF8F87988B1B861C862B853C854F
S21401F2C08B819C812817390708F053C029813A8120
S21401F2D08B859C85F901E80FF91F808199278D8719
S21401F2E09E8780E890E08F8398871D821E828D819D
S21401F2F09E818830910508F036C08F8598899923BC
S21401F3002CF481E090E089879A8702C019861A86D4
S21401F3108F859889880F991F8F87988B2D853E85B5
S21401F3208F81988582239323009729F08F8598896A
S21401F33001968F87988B89859A85009741F08F85EE
S21401F340988921E230E1822793278F87988B8F81D6
S21401F3509885969587958F8398878D819E8101964E
S21401F3608D839E83C4CF8B859C8501968B879C87D6
S21401F370A5CF1D821E828D819E818031910508F068
S21401F38023C08F85988999232CF481E090E08987A2
S21401F3909A8702C019861A868F859889880F991FC1
S21401F3A08F87988B89859A85009741F08F859889F4
S21401F3B021E230E1822793278F87988B8D819E816A
S21401F3C001968D839E83D7CF8F85988960960FB6D9
S21401F3D0F894DEBF0FBECDBFDF91CF910895AA1B73
S21401F3E0BB1B51E107C0AA1FBB1FA617B70710F02A
S21401F3F0A61BB70B881F991F5A95A9F7809590955C
S20A01F400BC01CD010895D8
S80401E0001A
