S0110000626C696E6B5F6C65642E737265636F
S11300000C94C6000C94E3000C94E3000C94E300FD
S11300100C94E3000C94E3000C94E3000C94B912E8
S11300200C94E3000C94E3000C94E3000C94E300C0
S11300300C94AB310C94E3000C94E3000C94392E33
S11300400C94E3000C94E3000C94770A0C94500A8B
S11300500C94E3000C94141E0C94B5170C94E30058
S11300600C94E3000C94E3000C94E3000C94E30080
S11300700C94E3000C94E3000C94C50A0C949E0ABF
S11300800C94E3000C94E3000C94E3002543206DEE
S1130090656D6F727920626C6F636B732C202564BD
S11300A020616C6C6F63617465642C202564206628
S11300B07265652C20256420746F74616C0A005B82
S11300C025435D3A206E6F64655F743A20253034B1
S11300D0782C20646174613A20253034782C2073A4
S11300E0697A652025640A00737461636B20254373
S11300F0206C6F6F6B732066756C6C0A007374618F
S1130100636B20254320686173206F766572666C8B
S11301106F7765640A0025432074687265616473AF
S11301202C20256420737461636B20616C6C6F6395
S1130130617465642C20256420737461636B20757D
S11301407365640A007468726561642025643A20EA
S113015073702025782C20737461636B2025782CB0
S11301602073697A652025642C20756E7573656427
S11301702025642C2073746174652025432C207021
S113018072696F726974792025430A0011241FBEB5
S1130190CFEFD0E1DEBFCDBF12E0A0E0B1E0E6E7F3
S11301A0FDE600E00BBF02C007900D92A038B10736
S11301B0D9F715E0A0E8B2E001C01D92A436B1075A
S11301C0E1F70C9431020C940000ABEBB4E0ECEFDB
S11301D0F4E093E081918D93915097FFFBCFAFEBC7
S11301E0B4E0E0E0F1E08EE001900D928150E1F79F
S11301F081E18093FB0480E00E940B0289EB94E090
S11302000E94B31168EB7BE080E090E00E947F29BC
S1130210F2CF0F931F93CF93DF93CDB7DEB724971D
S11302200FB6F894DEBF0FBECDBF82E00E941F0C54
S11302308C0181E00E940B02DE0111969D01A80150
S11302404E5F5F4F93E0FA018191AF01F901819311
S11302509F01915097FFF7CF0E5B1F4FF8018081EC
S113026002541040F801E80FF11D12820A5F1F4F7B
S11302701F930F93FD01838199279F938F9382810D
S113028099279F938F93818199279F938F93898136
S113029099279F938F938EE091E09F938F930E9471
S11302A077048DB79EB70C960FB6F8949EBF0FBE19
S11302B08DBFBBCF8091FF0499279F938F9380912B
S11302C0FE0499279F938F938091FD0499279F9310
S11302D08F938091FC0499279F938F9380E391E0FF
S11302E09F938F930E9477048DB79EB70A960FB69B
S11302F0F8949EBF0FBE8DBF86E591E00E94A302D5
S113030082E00E940B0268EB7BE080E090E00E94B8
S11303107F29F2CF83E00E94881164E070E08CEFC3
S113032094E00E94562443E060E870E085EE90E09B
S11303300E94CC2B43E060E870E089E091E00E94E9
S1130340CC2B43E060E870E08AE591E00E94CC2B7E
S113035008958AB387608ABB61E070E020918002CF
S113036040E050E032E0CB01042E02C0880F991F18
S11303700A94E2F78095282331504F5F5F4F37FF8F
S1130380F2CF2093800220952BBB089583E090E068
S1130390089521E030E002C0220F331F8A95E2F76E
S11303A080918002822B8093800280958BBB08957C
S11303B021E030E002C0220F331F8A95E2F7922F2A
S11303C090958091800289238093800280958BBBD5
S11303D008951F93182F0E94D8018FEF9FEF0E945A
S11303E0D12F812F0E94C9018FEF9FEF0E94D12F3F
S11303F0812F0E94D8018FEF9FEF0E94D12F812F70
S11304000E94C9018FEF9FEF0E94D12F812F0E947C
S1130410D8011F910895282F809180029927022ED8
S113042002C0959587950A94E2F780FF04C0822F55
S11304300E94D8010895822F0E94C90108958093D3
S1130440800280958BBB08950E94CA070E947A029D
S11304500E9448020E94E6320E94D9260E948A0124
S11304600895CFEFD0E1DEBFCDBF0E94BD270E942B
S1130470A9010E94EC0A43E060E071E084E292E0AA
S11304800E94CC2B0E94BF2B80E090E00C94BA36E3
S1130490CF93DF93CDB7DEB721970FB6F894DEBFC5
S11304A00FBECDBF0E943A1D0E94471E0E94AA178C
S11304B00E94111688E181BD11BC84B7806884BF95
S11304C00E9468140E94311D0E94AB1E0E94952454
S11304D061E070E0CE01860F971F0E940C140E9409
S11304E0DE1021960FB6F894DEBF0FBECDBFDF91AC
S11304F0CF91089584EC92E00E9428270895CF9329
S1130500DF93EC0188818823D9F09091C302E92F0D
S1130510FF27EF57FD4F899182839F5F9093C3021A
S11305209E3359F41092C1029F5F9093C30281E8F5
S113053092E00E941F081092C3028881882329F741
S1130540DF91CF9108950F931F938C0184EC92E077
S11305500E943027C8010E947F028091C30221E8D3
S113056032E0F901E80FF11D9AE092838F5FF901FF
S1130570E80FF11D12828F5F8093C302C9010E94AC
S11305801F081092C30284EC92E00E94612780E06D
S113059090E01F910F9108950F931F938C0184ECA9
S11305A092E00E94302782E08093C302009383028A
S11305B01092840281E892E00E941F081092C30204
S11305C084EC92E00E94612780E090E01F910F91FB
S11305D00895CF93DF93EC01FC0121968491882345
S11305E0E1F09091C302E92FFF27EF57FD4F82837B
S11305F09F5F9093C3029E3359F41092C1029F5F90
S11306009093C30281E892E00E941F081092C302F3
S1130610FE0121968491882321F7DF91CF910895DB
S11306200F931F93CF93DF93EC01062F1127CE0175
S1130630B8010E944336282F1092DA02209731F431
S113064080E38093CA0281E08093DA02C017D10765
S113065000F1E091DA028E2F2A3028F4FF27E653C6
S1130660FD4F205D04C0FF27E653FD4F295C208326
S1130670E82FEF5FCE01B8010E944336EB01CB01B6
S1130680B8010E944336282FC017D10720F7E09302
S1130690DA02222399F08091DA022A3030F4E82F2A
S11306A0FF27E653FD4F205D05C0E82FFF27E653E3
S11306B0FD4F295C20838F5F8093DA028091DB02F7
S11306C09091DA02981720F4891B8093DB0202C010
S11306D01092DB028091DB0281508093DB028F3F1A
S11306E0D1F09091C302E92FFF27EF57FD4F80917E
S11306F0DC0282839F5F9093C3029E3359F710926A
S1130700C1029F5F9093C30281E892E00E941F0898
S11307101092C302DFCF8091DA02882331F19091E5
S1130720C302A92FBB27AF57BD4F8091DA02815076
S11307308093DA02E82FFF27E653FD4F8081FD0105
S113074082839F5F9093C3029E3359F41092C10237
S11307509F5F9093C30281E892E00E941F08109269
S1130760C3028091DA028823D1F6DF91CF911F91E1
S11307700F910895AF92BF92CF92DF92EF92FF92C2
S11307800F931F93CF93DF937B018C01A42EBB2483
S1130790CC24DD24C801B701A60195010E94573677
S11307A0DC01CB01982FCAECD2E01092DA02E114FA
S11307B0F1040105110531F480E38093CA0281E05C
S11307C08093DA02EA14FB040C051D0508F18091FC
S11307D0DA029E012F5F3F4F9A3010F4905D01C002
S11307E0995C9883E9018F5F8093DA02C801B701AD
S11307F0A60195010E94573679018A01CA01B901FF
S1130800A60195010E945736DC01CB01982FDACF5F
S1130810992359F08091DA029A3010F4905D01C066
S1130820995C98838F5F8093DA028091DB029091C8
S1130830DA02981720F4891B8093DB0202C010921D
S1130840DB028091DB0281508093DB028F3FD1F089
S11308509091C302E92FFF27EF57FD4F8091DC02EF
S113086082839F5F9093C3029E3359F71092C10213
S11308709F5F9093C30281E892E00E941F08109248
S1130880C302DFCF8091DA02882331F18091DA024A
S113089081508093DA029091C302A92FBB27AF57EE
S11308A0BD4FE82FFF27E653FD4F8081FD01828372
S11308B09F5F9093C3029E3359F41092C1029F5FCD
S11308C09093C30281E892E00E941F081092C30231
S11308D08091DA028823D1F6DF91CF911F910F9195
S11308E0FF90EF90DF90CF90BF90AF900895DF928C
S11308F0EF92FF920F931F93CF93DF93CDB7DEB7A1
S11309000A851B850115110519F48FEF9FEF7EC130
S113091084EC92E00E9430272CE0E22EF12CEC0EC5
S1130920FD1E1092C30280E4E3E8F2E011928A957E
S1130930E9F7F8018081882309F452C1F801819113
S11309408F01853209F099C08F018081803329F4A9
S11309508093DC020F5F1F4F03C080E28093DC02B0
S11309601092DB02F8012081822F80538A3090F4A8
S11309703AE08091DB02839FC0011124280F2053A9
S11309802093DB020F5F1F4FF8012081822F8053D9
S11309908A3078F3F80181918F01992787FD90952A
S11309A08436910509F445C085369105C4F4803533
S11309B09105B1F1813591054CF48532910509F425
S11309C0AAC08334910509F45FC0C4C0823691057E
S11309D009F4B5C08336910509F449C0BBC08F360C
S11309E0910509F491C08037910544F48836910546
S11309F009F483C08C36910519F1ACC08337910595
S1130A0029F08837910509F448C0A4C0F70182E0B1
S1130A1090E0E80EF91E808191810E947F0289CFC7
S1130A20F70182E090E0E80EF91E808191810E9436
S1130A30E902F70182E090E0E80EF91E6AE085C061
S1130A40F70184E090E0E80EF91E80819181A28193
S1130A50B3818093DD029093DE02A093DF02B09312
S1130A60E0024AE0BC01CD010E94BA0362CFF70163
S1130A7082E090E0E80EF91E80819091C302E92F94
S1130A80FF27EF57FD4F4EC0F70182E090E0E80EDC
S1130A90F91E80816AE099275AC09091C302E92F18
S1130AA0FF27EF57FD4F80E382839F5F9093C3023C
S1130AB09E3359F41092C1029F5F9093C30281E860
S1130AC092E00E941F081092C3029091C302E92F82
S1130AD0FF27EF57FD4F88E782839F5F9093C30200
S1130AE09E3359F41092C1029F5F9093C30281E830
S1130AF092E00E941F081092C302F70182E090E086
S1130B00E80EF91E60E121C0F70182E090E0E80EF2
S1130B10F91E68E01AC09091C302E92FFF27EF572E
S1130B20FD4F85E282839F5F9093C3029E3309F059
S1130B3000CF1092C1029F5F9093C3024AC0F70195
S1130B4082E090E0E80EF91E62E0808191810E94CB
S1130B501003EFCE8091C302E82FFF27EF57FD4F1C
S1130B609FE3D92ED2828F5F8093C3028E3351F4D8
S1130B701092C102D092C30281E892E00E941F0841
S1130B801092C3028091C302E82FFF27EF57FD4F55
S1130B90D2828F5F8093C3028E3351F41092C102CC
S1130BA0D092C30281E892E00E941F081092C3020F
S1130BB08091C302E82FFF27EF57FD4FD2828F5F4A
S1130BC08093C3028E3309F0B4CE1092C102D09246
S1130BD0C30281E892E00E941F081092C302A9CECA
S1130BE08091C302E82FFF27EF57FD4F12828F5FDA
S1130BF08093C30281E892E00E941F081092C3020E
S1130C0084EC92E00E94612780E090E0DF91CF9134
S1130C101F910F91FF90EF90DF900895CF92DF9294
S1130C20EF92FF921F93CF93DF93CDB7DEB7EA84A1
S1130C30FB84E114F10419F48FEF9FEF96C184EC67
S1130C4092E00E9430273CE0C32ED12CCC0EDD1E56
S1130C501092C302F7011491112309F470C1970192
S1130C602F5F3F4F1532D9F08091C302E82FFF2741
S1130C70EF57FD4F12838F5F8093C3027901F9010F
S1130C8014918E3349F71092C1028F5F8093C3028F
S1130C9081E892E00E941F081092C302DDCF79011F
S1130CA0F9011491103341F41093DC020894E11C0F
S1130CB0F11CF701149103C080E28093DC021092CE
S1130CC0DB02812F80538A3098F42AE090E0929FCF
S1130CD0C0011124912F980F90530894E11CF11C2A
S1130CE0F7011491812F80538A3088F39093DB02AB
S1130CF0812F992787FD90958436910509F445C085
S1130D0085369105C4F480359105B1F1813591059D
S1130D104CF48532910509F4AAC08334910509F491
S1130D205FC0C4C08236910509F4B5C0833691050D
S1130D3009F449C0BBC08F36910509F491C08037CE
S1130D40910544F48836910509F483C08C369105E5
S1130D5019F1ACC08337910529F08837910509F45E
S1130D6048C0A4C0F60182E090E0C80ED91E80817C
S1130D7091810E947F02DDC0F60182E090E0C80EFE
S1130D80D91E808191810E94E902F60182E090E0FF
S1130D90C80ED91E6AE085C0F60184E090E0C80E52
S1130DA0D91E80819181A281B3818093DD029093C9
S1130DB0DE02A093DF02B093E0024AE0BC01CD0161
S1130DC00E94BA03B6C0F60182E090E0C80ED91EB4
S1130DD080819091C302E92FFF27EF57FD4F4EC04A
S1130DE0F60182E090E0C80ED91E80816AE099275E
S1130DF05AC09091C302E92FFF27EF57FD4F80E3BC
S1130E0082839F5F9093C3029E3359F41092C10270
S1130E109F5F9093C30281E892E00E941F081092A2
S1130E20C3029091C302E92FFF27EF57FD4F88E7D4
S1130E3082839F5F9093C3029E3359F41092C10240
S1130E409F5F9093C30281E892E00E941F08109272
S1130E50C302F60182E090E0C80ED91E60E121C011
S1130E60F60182E090E0C80ED91E68E01AC09091A5
S1130E70C302E92FFF27EF57FD4F85E282839F5F6F
S1130E809093C3029E3309F054C01092C1029F5F35
S1130E909093C30248C0F60182E090E0C80ED91EC8
S1130EA062E0808191810E94100343C08091C3025B
S1130EB0E82FFF27EF57FD4F1FE312838F5F8093C7
S1130EC0C3028E3351F41092C1021093C30281E81D
S1130ED092E00E941F081092C3028091C302E82F7F
S1130EE0FF27EF57FD4F12838F5F8093C3028E332A
S1130EF051F41092C1021093C30281E892E00E945F
S1130F001F081092C3028091C302E82FFF27EF57F6
S1130F10FD4F12838F5F8093C3028E3351F410927E
S1130F20C1021093C30281E892E00E941F0810924C
S1130F30C3020894E11CF11CF70114918DCE809139
S1130F40C302E82FFF27EF57FD4F12828F5F809374
S1130F50C30281E892E00E941F081092C30284EC4D
S1130F6092E00E94612780E090E0DF91CF911F9191
S1130F70FF90EF90DF90CF900895272F3327882399
S1130F8021F42093900069B9089520939800609308
S1130F909900089567E070E080E00E94BD076FE566
S1130FA070E081E00E94BD071092E1021092E2021B
S1130FB086E08093950080939D001AB810929A0061
S1130FC060E070E087EF92E00E94772E60E070E0CE
S1130FD08CEF92E00E94772E60E070E081E093E075
S1130FE00E94772E60E070E086E093E00E94772E06
S1130FF08AED98E09093E6028093E5028BE499E011
S11310009093E4028093E3024BEE52E060E070E0E0
S113101080E00E94FA0D81E999E09093EA028093BE
S1131020E90285E09AE09093E8028093E7024FEEAC
S113103052E060E070E081E00E94FA0D0895CF93E1
S1131040DF93EC0180E095E00E9430270E94E232B9
S1131050282FD093EE02C093ED0281E08093F40236
S11310608091E102882341F48BE499E09093E402B7
S11310708093E30283E507C08CE699E09093E40251
S11310808093E3028A818CB98AB188628AB92FBFBE
S113109087EF92E00E94D22E80E095E00E946127C3
S11310A080E090E0DF91CF910895CF93DF93EC013E
S11310B086E095E00E9430270E94E232282FD093E8
S11310C0F202C093F10281E08093F5028091E20282
S11310D0882341F485E09AE09093E8028093E70244
S11310E083E507C088E29AE09093E8028093E702E0
S11310F08A8180939C0080919A00886280939A00F0
S11311002FBF8CEF92E00E94D22E86E095E00E94E1
S1131110612780E090E0DF91CF910895CF93DF9332
S1131120CDB7DEB7DF91CF910895CF93DF93CDB7DD
S1131130DEB7DF91CF9108959927833091051CF094
S1131140039759F008958AB18F768AB98AED98E0A9
S11311509093E6028093E50208958AED98E09093D7
S1131160E6028093E5021092F3028AB180698AB99B
S113117008959927833091051CF0039769F0089529
S113118080919A008F7680939A0081E999E09093F8
S1131190EA028093E902089581E999E09093EA02D2
S11311A08093E9021092F60280919A0080698093FC
S11311B09A0008958CB1833531F48091F3028F5FE6
S11311C08093F30202C01092F3028091F302823002
S11311D0C9F46091EB027091EC026115710539F06C
S11311E083E099E09093E6028093E50208958AED06
S11311F098E09093E6028093E5024BEE52E080E0A3
S11312000E94FA0D0895E091EB02F091EC02EE5B7E
S1131210FF4F8CB18083E091EB02F091EC02EE5B26
S1131220FF4F8081813438F08AED98E09093E60294
S11312308093E502089584E299E09093E602809316
S1131240E5021092F3020895E091EB02F091EC02B2
S11312509091F302E90FF11D8CB182839F5F90930B
S1131260F302E091EB02F091EC02EE5BFF4F808120
S1131270E254F040981771F48AED98E09093E602F6
S11312808093E5021092F3024BEE52E0BF0180E03E
S11312900E94FA0D089583E58CB98091F4028F5F62
S11312A08093F402823031F48BE599E09093E40268
S11312B08093E3020895E091ED02F091EE02EE5B7B
S11312C0FF4F80818CB98CE699E09093E40280937F
S11312D0E3021092F4020895E091ED02F091EE021F
S11312E0EE5BFF4F9091F4028081E254F040981736
S11312F081F48AB1877D8AB91092F4028BE499E073
S11313009093E4028093E30287EF92E00E949D2E83
S11313100895E90FF11D9F5F9093F40282818CB9C7
S1131320089580919C00833531F48091F6028F5F9B
S11313308093F60202C01092F6028091F602823087
S1131340C9F46091EF027091F0026115710539F0F2
S11313508BEB99E09093EA028093E902089581E986
S113136099E09093EA028093E9024FEE52E081E023
S11313700E94FA0D0895E091EF02F091F002EE5B05
S1131380FF4F80919C008083E091EF02F091F00286
S1131390EE5BFF4F8081813438F081E999E09093CE
S11313A0EA028093E90208958DED99E09093EA02B0
S11313B08093E9021092F6020895E091EF02F09111
S11313C0F0029091F602E90FF11D80919C00828356
S11313D09F5F9093F602E091EF02F091F002EE5BD2
S11313E0FF4F8081E254F040981771F481E999E04D
S11313F09093EA028093E9021092F6024FEE52E0D3
S1131400BF0181E00E94FA0D089583E580939C005A
S11314108091F5028F5F8093F502823031F486E18A
S11314209AE09093E8028093E7020895E091F10234
S1131430F091F202EE5BFF4F808180939C0088E282
S11314409AE09093E8028093E7021092F5020895DF
S1131450E091F102F091F202EE5BFF4F9091F50200
S11314608081E254F040981791F480919A00877D2E
S113147080939A001092F50285E09AE09093E80236
S11314808093E7028CEF92E00E949D2E0895E90F6D
S1131490F11D9F5F9093F502828180939C000895D3
S11314A01F920F920FB60F9211242F933F934F93D5
S11314B05F936F937F938F939F93AF93BF93EF93B8
S11314C0FF93E091E302F091E4020995FF91EF911B
S11314D0BF91AF919F918F917F916F915F914F9148
S11314E03F912F910F900FBE0F901F9018951F9250
S11314F00F920FB60F9211242F933F934F935F9344
S11315006F937F938F939F93AF93BF93EF93FF93C7
S1131510E091E502F091E6020995FF91EF91BF9108
S1131520AF919F918F917F916F915F914F913F9177
S11315302F910F900FBE0F901F9018951F920F922E
S11315400FB60F9211242F933F934F935F936F9392
S11315507F938F939F93AF93BF93EF93FF93E09108
S1131560E702F091E8020995FF91EF91BF91AF91E5
S11315709F918F917F916F915F914F913F912F91A7
S11315800F900FBE0F901F9018951F920F920FB6D9
S11315900F9211242F933F934F935F936F937F93F5
S11315A08F939F93AF93BF93EF93FF93E091E902DF
S11315B0F091EA020995FF91EF91BF91AF919F914C
S11315C08F917F916F915F914F913F912F910F90E8
S11315D00FBE0F901F901895CF92DF92EF92FF925B
S11315E00F931F93CF93DF930E94E232E82E109261
S11315F01A0310921903C0E0D5E026E0F22E9BE115
S1131600C92E93E0D92E0BE013E0F8011192119248
S11316108F01CE010E942827F601119211926F01C9
S1131620FA942696F7FEF1CF84E0F82E83E490E056
S11316300E944225FC01892B59F080911903909155
S11316401A0391838083F0931A03E09319031CC057
S113165085E00E941F0284EF91E00E94DA2F87E068
S11316600E941F0284EF91E00E94DA2F85E00E941D
S11316701F0284EF91E00E94DA2F87E00E941F028C
S113168084EF91E00E94DA2FFA94F7FECFCFEFBEF9
S113169080E090E0DF91CF911F910F91FF90EF9048
S11316A0DF90CF9008952F923F925F926F927F9236
S11316B08F929F92AF92BF92CF92DF92EF92FF925E
S11316C00F931F93CF93DF93CDB7DEB724970FB655
S11316D0F894DEBF0FBECDBF182F3A014B01222470
S11316E033243C822B8280916205909163059A8316
S11316F089830E94E232582E812F9927880F991FDF
S11317005BE0E52E53E0F52EE80EF91EF701A0800C
S1131710B180A114B10419F05FBEC1015DC04BE1F9
S1131720C42E43E0D42EC80ED91EF60180819181C7
S1131730892B81F58FE39EE090932A0380932903FC
S1131740CE01019690932C0380932B0360922D037A
S113175070922E0380922F039092300310923103E3
S113176010923203109233031092340389E293E00F
S11317700E948B3131E0232E312C809162059091AF
S11317806305F70191838083852D0E94292A0E9495
S1131790E232582E2B813C812115310531F4F601BA
S11317A0008111810115110531F4F701B182A08284
S11317B05FBEC50111C0F80180819181F60191835A
S11317C08083F70131832083232821F089E293E089
S11317D00E94E82F5FBEC80124960FB6F894DEBFBE
S11317E00FBECDBFDF91CF911F910F91FF90EF906E
S11317F0DF90CF90BF90AF909F908F907F906F902D
S11318005F903F902F9008951F93182F0E94E2320B
S1131810282FA12FBB27AA0FBB1FFD01E55FFC4F9B
S113182080819181892B21F02FBF80E090E005C059
S1131830A55EBC4F8D919C912FBF1F910895EF928F
S1131840FF920F931F93CF93DF93182F0E94E232DE
S1131850282F812F9927880F991F8C01055F1C4F12
S1131860D801ED90FC90E114F10421F02FBF80E049
S113187090E01FC0EC01C55EDC4F88819981892B03
S113188069F48091620590916305F80191838083E6
S1131890822F0E94292A0E94E232282FE881F981AE
S11318A08081918199838883D801ED92FC922FBF26
S11318B0CF01DF91CF911F910F91FF90EF90089589
S11318C04F925F927F928F929F92AF92BF92CF92EC
S11318D0DF92EF92FF920F931F93CF93DF93CDB7D5
S11318E0DEB762970FB6F894DEBF0FBECDBF6C01B2
S11318F07A018B01BB24AB2C8B2C0E94E232982EF4
S1131900F1E04F2E512CD6017C9040E050E036E0BF
S1131910ABE0B3E0BA01C201042E02C0880F991FE4
S11319200A94E2F7282F872D822381F08D919C91D0
S11319301197892B11F0E6E9AE2EFB01E55EFC4F11
S113194080819181892B11F0B22A839431504F5FA9
S11319505F4F6E5F7F4F129637FFDDCFB6E9AB1650
S113196019F0E0EAAE1621F49FBE8A2D9927ADC086
S1131970BB2009F0A5C0E114F1040105110509F427
S11319809FC01A8A198A8091620590916305988B89
S11319908F8761E0462E512CBC0140E050E037E0D7
S11319A0EBE0F3E0C201042E02C0880F991F0A94F1
S11319B0E2F7282FD6018C91822311F07183608382
S11319C031504F5F5F4F329637FFECCFBFEFEB16CE
S11319D0BFEFFB06BFEF0B07BFEF1B07A1F08FE3C1
S11319E09EE09A838983CE010F969C838B83ED823C
S11319F0FE820F83188719861A861B861C86CE01E1
S1131A0001960E948B31892D0E94292A0E94E2327C
S1131A10982EEFEFEE16EFEFFE06EFEF0E07EFEF67
S1131A201E0731F189899A89892BF1F061E070E010
S1131A3040E050E037E0EBE0F3E0CB01042E02C0DD
S1131A40880F991F0A94E2F7282FD6018C918223DC
S1131A5011F01182108231504F5F5F4F329637FF81
S1131A60ECCFF60110822EC0CE0101960E94E82F21
S1131A7001E010E040E050E037E0ABE1B3E0BA0150
S1131A80C801042E02C0880F991F0A94E2F7282F78
S1131A90F6018081822361F08D919C911197892BAD
S1131AA011F0B22A8394FB01E55FFC4F118210828E
S1131AB031504F5F5F4F6E5F7F4F129637FFE0CF1D
S1131AC0D601BC929FBE882D992762960FB6F894D2
S1131AD0DEBF0FBECDBFDF91CF911F910F91FF905D
S1131AE0EF90DF90CF90BF90AF909F908F907F90BA
S1131AF05F904F900895CF93DF93EC01892B71F0A1
S1131B000E94E232282F8091190390911A0399833D
S1131B108883D0931A03C09319032FBFDF91CF9109
S1131B200895FF920F931F93CF93DF93CDB7DEB742
S1131B3021970FB6F894DEBF0FBECDBFF82E0F2D40
S1131B40112781E090E0002E02C0880F991F0A94AB
S1131B50E2F7898340E050E060E070E0CE01019656
S1131B600E94600C8981992702C0959587950A95F2
S1131B70E2F780FF06C08F2D0E941F0C0E947B0D90
S1131B80DECF21960FB6F894DEBF0FBECDBFDF9136
S1131B90CF911F910F91FF900895FC01EE5BFF4FD1
S1131BA08081E254F040843018F480E090E008959D
S1131BB08281813461F483818B3449F48481853555
S1131BC031F485818F3519F481E090E0089580E047
S1131BD090E00895E0911903F0911A03309741F0D1
S1131BE08081918190931A0380931903CF01089502
S1131BF0CF010895EF92FF920F931F93CF93DF933A
S1131C00182FEB017A010E94E232082F209751F13C
S1131C1019821882212F3327F901E20FF31FE55EA1
S1131C20FC4F80819181009749F0FC018081918172
S1131C30892B21F00190F081E02DF8CFD183C0836E
S1131C40F901E20FF31FE55FFC4F2081318121157B
S1131C50310541F011821082802F9927BC01C901FE
S1131C600E940B280E94EA0DF701918380830FBF25
S1131C70DF91CF911F910F91FF90EF900895FC0198
S1131C8081E090E093838283808191810E940B287C
S1131C9008959C01FB01E20FF31F4083852F9927D0
S1131CA0818308950F931F93CF93DF938C01FB01DE
S1131CB0DB01A80FB91F2C933196BF01680F791F60
S1131CC0BB27A52F942F832FEB0188833196BF0167
S1131CD0600F711FCA01AA27BB27EB018883FB0190
S1131CE0852F9927AA27BB278183DF91CF911F9145
S1131CF00F910895DB01A80FB91F8C91482F552728
S1131D00FD0181819927982F8827842B952B08958D
S1131D100F931F938C01FB01E80FF91F8081282F7B
S1131D203327442755276F5F7F4FFB01E00FF11FD7
S1131D3080819927AA27BB27BA2FA92F982F8827F4
S1131D40282B392B4A2B5B2B6F5F7F4FFB01E00F56
S1131D50F11F80819927AA27BB27DC0199278827AF
S1131D60282B392B4A2B5B2B81819927AA27BB2748
S1131D70B82FAA2799278827282B392B4A2B5B2B86
S1131D80CA01B9011F910F910895CF93DF93CDB785
S1131D90DEB721970FB6F894DEBF0FBECDBF89839F
S1131DA01F921F921F920E948E1E61E070E0CE016E
S1131DB0860F971F0E94701E81E08F930E948E1ED3
S1131DC00F900F900F900F9021960FB6F894DEBFEE
S1131DD00FBECDBFDF91CF910895CF93DF93CDB7E1
S1131DE0DEB723970FB6F894DEBF0FBECDBF89834D
S1131DF07B836A831F921F921F920E948E1E61E052
S1131E0070E0CE01860F971F0E94701E62E070E0A2
S1131E10CE01860F971F0E94701E81E08F930E944F
S1131E208E1E0F900F900F900F9023960FB6F8947C
S1131E30DEBF0FBECDBFDF91CF9108951F93CF9327
S1131E40DF93CDB7DEB723970FB6F894DEBF0FBE8E
S1131E50CDBF182F1F921F921F920E948E1E0F90AB
S1131E600F900F901064198361E070E0CE01860F2B
S1131E70971F0E94701E62E070E0CE01860F971FCC
S1131E800E945C1E81E08F930E948E1E0F908A81B7
S1131E909B8123960FB6F894DEBF0FBECDBFDF91B2
S1131EA0CF911F910895CF93DF93CDB7DEB72197DC
S1131EB00FB6F894DEBF0FBECDBF1F921F921F92C4
S1131EC00E948E1E61E070E0CE01860F971F0E9473
S1131ED05C1E81E08F930E948E1E89810F900F906B
S1131EE00F900F90992721960FB6F894DEBF0FBE7E
S1131EF0CDBFDF91CF910895DF92EF92FF920F93C0
S1131F001F93CF93DF93CDB7DEB721970FB6F89425
S1131F10DEBF0FBECDBF7C018B01D42E1F921F925A
S1131F201F920E948E1E802F8068898361E070E07A
S1131F30CE01860F971F0E94701E16950795802F5D
S1131F40807C898361E070E0CE01860F971F0E9438
S1131F50701E8D2D9927BC01C7010E94701E81E05F
S1131F608F930E948E1E0F900F900F900F902196CA
S1131F700FB6F894DEBF0FBECDBFDF91CF911F9196
S1131F800F91FF90EF90DF900895FF920F931F93AE
S1131F90CF93DF93CDB7DEB721970FB6F894DEBFAA
S1131FA00FBECDBF8C01F62E1F921F921F920E946E
S1131FB08E1E8EE3898381E090E00E94D12F61E040
S1131FC070E0CE01860F971F0E94701E81E090E0A2
S1131FD00E94D12F8F2D9927BC01C8010E94701E29
S1131FE081E090E00E94D12F81E08F930E948E1EA9
S1131FF00F900F900F900F9021960FB6F894DEBFBC
S11320000FBECDBFDF91CF911F910F91FF90089527
S1132010EF92FF920F931F93CF93DF93CDB7DEB769
S113202022970FB6F894DEBF0FBECDBF7C01062FFA
S11320301F921F921F920E948E1E0F900F900F905E
S11320408FE78A8361E070E0CE0102960E94701EE1
S113205010E012C000000E945913892BD9F361E0EB
S113206070E0CE01860F971F0E945C1EF701E10FFE
S1132070F11D898180831F5F101768F381E08F93BE
S11320800E948E1E0F9022960FB6F894DEBF0FBEEC
S1132090CDBFDF91CF911F910F91FF90EF900895E5
S11320A01F93CF93DF93CDB7DEB722970FB6F89483
S11320B0DEBF0FBECDBF182F1F921F921F920E942A
S11320C08E1E0F900F900F908FE7898361E070E070
S11320D0CE01860F971F0E94701E112341F061E00C
S11320E070E0CE0102960E945C1E1150F6CF81E092
S11320F08F930E948E1E0F9022960FB6F894DEBF27
S11321000FBECDBFDF91CF911F910895FF920F9322
S11321101F93CF93DF93CDB7DEB721970FB6F89413
S1132120DEBF0FBECDBF8C01F62E1F921F921F92F1
S11321300E948E1E0F900F900F908FE7898361E0AD
S113214070E0CE01860F971F0E94701E8F2D992775
S1132150BC01C8010E945C1E81E08F930E948E1E08
S11321600F9021960FB6F894DEBF0FBECDBFDF915E
S1132170CF911F910F91FF900895FF920F931F939A
S1132180082F11270B501040C801880F991F880F82
S1132190991F080F191F0B591E4B0E94E232F82E8B
S11321A0B80188E10E94ED0EFFBE1F910F91FF90D0
S11321B008950E94530F86FFFCCF08951F93CF9379
S11321C0DF93CDB7DEB721970FB6F894DEBF0FBE0D
S11321D0CDBF0E94F12690933803809337030E9469
S11321E0E232182F0E947E1381E00E94C50E62EE37
S11321F072E081E10E94ED0E60E075E082E10E94F0
S1132200ED0E6FE770E08CE10E94ED0E64EC71E07E
S113221089E10E94ED0E8AE10E94BD100E94D9104E
S113222042E06AE671E087E393E00E947C0F42E0BB
S113223068E671E083E791E00E947C0F1F921F9291
S11322401F920E948E1E0F900F900F9088EE89832C
S113225061E070E0CE01860F971F0E94701E80EA35
S1132260898361E070E0CE01860F971F0E94701E83
S113227062E070E087E393E00E945C1E81E08F934C
S11322800E948E1E0F904AE353E060E070E082E00B
S11322900E94FA0D1092390388E00E94C50E89E06D
S11322A00E94C50E1FBF21960FB6F894DEBF0FBE65
S11322B0CDBFDF91CF911F910895809144039091F8
S11322C045030895CF93DF93CDB7DEB78D816E813B
S11322D07F8199278230910561F0833091051CF448
S11322E0019721F012C0039739F00FC060EE70EA35
S11322F009C06FEF70EA06C06F3F710509F028F45A
S113230060527F4585E10E94ED0EDF91CF910895E3
S11323101F93CF93182F9927009719F0039769F00B
S11323201FC00E94E232C82F0E94A41386E00E94BC
S1132330C50ECFBF1093390313C080913903813088
S113234079F00E94E232C82F0E94A01383E00E9419
S1132350C50E88E00E94C50ECFBF81E0809339038B
S1132360CF911F910895EF92FF921F93CF93DF9324
S1132370EC01009729F4F7C01FBF81E090E0F3C09F
S113238010924A0332E4E32EF12CE80EF91EF70111
S11323908081855F8093470381E498E890934903A3
S11323A08093480310924B0310924C0310924D03F8
S11323B010924E0317C080914B0390914C03A0914F
S11323C04D03B0914E030196A11DB11D80934B03A3
S11323D090934C03A0934D03B0934E030097A10533
S11323E0B10559F20E947413892B29F70E946013D6
S11323F0892B09F70E94E232182F89E00E94C50E4A
S113240080913903813019F083E00E94C50E109247
S11324104B0310924C0310924D0310924E030E94F2
S1132420530F282F8093460380914B0390914C03C4
S1132430A0914D03B0914E030196A11DB11D80934F
S11324404B0390934C03A0934D03B0934E0300971A
S1132450A105B10509F490CF21FFE1CF10924B0300
S113246010924C0310924D0310924E0385E00E948B
S1132470C50E0E94530F282F8093460380914B036F
S113248090914C03A0914D03B0914E030196A11D70
S1132490B11D80934B0390934C03A0934D03B093D1
S11324A04E030097A105B10509F466CF23FFDECFE3
S11324B061E087E493E00E94C50F62E088E493E062
S11324C00E94C50F61E08AE493E00E94C50F62E0B8
S11324D083E791E00E94C50F62E081E791E00E94EA
S11324E0C50F62E087E393E00E94C50FF7016081A6
S11324F0CE0102960E94C50F10924B0310924C031A
S113250010924D0310924E0318C080914B0390918A
S11325104C03A0914D03B0914E030196A11DB11D32
S113252080934B0390934C03A0934D03B0934E03BD
S11325300097A105B10509F41FCF0E947413892BDC
S113254021F380913903813031F00E94E232182F57
S113255086E00E94C50E80913F038F5F80933F0306
S11325601FBF80E090E0DF91CF911F91FF90EF902B
S113257008951F920F920FB60F9211242F933F9339
S11325804F935F936F937F938F939F93AF93BF9377
S1132590EF93FF930E945913892B59F40E946013FF
S11325A0892B39F488E00E94C50E88E00E94C50E8C
S11325B06FC061E08CE393E00E94081080913C03BB
S11325C08F7780933C03853078F162E08DE393E06C
S11325D00E94861061E08FE393E00E94081020912E
S11325E03C03235020933C03253041F0293030F044
S11325F0822F992709978134910514F0822F14C0F2
S113260060913A0370913B036115710581F44AE3CB
S113261053E082E00E94FA0D80913A0390913B03CB
S1132620892B29F480913C030E94501031C0E09121
S11326303A03F0913B03EE5BFF4F80913C038850DB
S1132640808382E00E94501062E080E493E00E9464
S1132650861062E082E493E00E948610E0913A03DF
S1132660F0913B03EE5BFF4F6081CF0180549040BB
S11326700E94861062E084E493E00E9486104AE39C
S113268053E060913A0370913B0382E00E94FA0D9B
S1132690FF91EF91BF91AF919F918F917F916F9136
S11326A05F914F913F912F910F900FBE0F901F900C
S11326B0189580E090E0B79B02C081E090E0089517
S11326C081B1992726E0969587952A95E1F781703F
S11326D09070089580B3992736E0969587953A953A
S11326E0E1F781709070089580B3992744E096953E
S11326F087954A95E1F78170907008958AB3806652
S11327008ABBDE9ADD9A80EA9FE00E94D12FDE9890
S113271084E090E00E94D12FDE9A84E190E00E9450
S1132720D12F8E988C989498BF9816981E988AB733
S113273080638ABF88B7806488BF16981E980895FE
S113274089B7806489BF089589B78F7B89BF08954D
S1132750A49AAC98AC9A0895A498AC9808950F9351
S11327601F93CF93DF938C01EB0180914F03882358
S113277011F40E94A81388E495E00E943027C13028
S1132780D10531F483E00E94B61DF801808311C0A5
S1132790C230D10539F483E00E94881DF801918389
S11327A0808307C088E495E00E94612764E670E0B6
S11327B00BC088E495E00E94612780914F03882331
S11327C011F40E94AC13BE01CB01DF91CF911F9194
S11327D00F91089584E690E00895CF93C82F992728
S11327E0009729F0039734F40E94A81306C00E94AE
S11327F0AC1303C084E690E004C0C0934F0380E0B0
S113280090E0CF910895CF93DF93CDB7DEB787E6FD
S113281090E0DF91CF9108950F931F93CF93DF93AF
S11328208C01EB0180914F03882311F40E94A813BB
S113283088E495E00E943027C130D10531F484E06A
S11328400E94B61DF801808310C0229739F484E0F9
S11328500E94881DF8019183808307C088E495E075
S11328600E94612784E690E00CC088E495E00E9411
S1132870612780914F03882311F40E94AC1380E0F8
S113288090E0DF91CF911F910F91089584E690E03D
S11328900895CF93C82F9927009729F0039734F40C
S11328A00E94A81306C00E94AC1303C084E690E003
S11328B004C0C0934F0380E090E0CF910895CF937C
S11328C0DF93CDB7DEB787E690E0DF91CF9108952F
S11328D080E395E00E9428270E94AC1308959C0190
S11328E06115710509F4B4C080916803882329F443
S11328F0809174008460809374007093610360938A
S1132900600310925F0310925E0330935D03209383
S11329105C0381E090E090935B0380935A03809181
S11329207400806A80937400809174008823E4F7B3
S11329308091710099278C7F089709F055C0809188
S11329406A0381608093730084E8809374008091AB
S113295074008823E4F78091710099278C7F803478
S1132960910509F041C08091600390916103019742
S113297020915E0330915F032817390738F584EC02
S113298080937400809174008823E4F7809171002F
S113299099278C7F8035910539F520915E0330911C
S11329A05F03E0915C03F0915D03E20FF31F8091FC
S11329B0730080832F5F3F4F30935F0320935E0348
S11329C080916003909161030197D6CF84E880934E
S11329D07400809174008823E4F780917100992732
S11329E08C7F8835910571F086E395E00E9461271C
S11329F080916803882341F5809174008B7F8093D4
S1132A00740022C080915E0390915F03E0915C03A7
S1132A10F0915D03E80FF91F209173002083019664
S1132A2090935F0380935E0380E9809374008091A8
S1132A306803882329F4809174008B7F8093740049
S1132A4086E395E00E94612760915E0370915F03C5
S1132A50CB010895EF92FF920F931F937C018B019A
S1132A6086E395E00E943027109265031092640378
S1132A701093670300936603F0926303E09262038A
S1132A8040916803442329F4809174008460809306
S1132A90740088E08093690310925B0310925A03D8
S1132AA080917400806A80937400809174008823FC
S1132AB0E4F78091710099278C7F0897B9F580918C
S1132AC06A038093730084E8809374008091740097
S1132AD08823E4F78091710099278C7F489731F51A
S1132AE0809164039091650320916603309167039C
S1132AF08217930770F5E0916203F0916303E80F86
S1132B00F91F0196909365038093640380818093F9
S1132B10730084E880937400809174008823E4F740
S1132B208091710099278C7F889771F086E395E0F6
S1132B300E946127809168038823C9F480917400FE
S1132B408B7F8093740013C080916403909165031C
S1132B50CFCF84E980937400442329F480917400D6
S1132B608B7F8093740086E395E00E9461278091B7
S1132B706403909165031F910F91FF90EF90089566
S1132B80809368039927009731F0029761F480914C
S1132B907400846003C0809174008B7F8093740000
S1132BA080E090E0089584E690E00895CF93DF9369
S1132BB0CDB7DEB78D81992787FD90958330910538
S1132BC0C1F0843091052CF4009749F0019759F035
S1132BD020C08430910591F00597B9F01AC0809116
S1132BE07400806403C0809174008F7B80937400B0
S1132BF013C08E81880F80936A030EC08091720087
S1132C009E81892B8093720007C08E81809370000F
S1132C1003C087E690E002C080E090E0DF91CF91AE
S1132C2008951092680386E395E00E94282760E0E7
S1132C3070E085E593E00E94772E60E070E080E527
S1132C4093E00E94772E809174008B7F80937400B0
S1132C5008951F920F920FB60F9211242F933F9352
S1132C604F935F936F937F938F939F93AF93BF9390
S1132C70EF93FF9383E00E941F0280915A03909187
S1132C805B0320916903892B09F46BC0822F992778
S1132C9080359105B9F1813591050CF0D9C08830A2
S1132CA0910521F08034910579F0D2C080917100B2
S1132CB099278C7F089709F051C0809172008695FE
S1132CC08093730080E41BC08091710099278C7FEE
S1132CD08034910509F042C080915E0390915F03B6
S1132CE0E0915C03F0915D03E80FF91F20917300FC
S1132CF02083019690935F0380935E0380E5809325
S1132D00690389C08091710099278C7F8035910572
S1132D1029F520915E0330915F03809160039091C7
S1132D2061032817390780F4E0915C03F0915D0397
S1132D30E20FF31F8091730080832F5F3F4F309326
S1132D405F0320935E0367C0809174008061809369
S1132D507400809174008E7F8093740080E593E00A
S1132D6075C0822F99278830910569F089309105C3
S1132D7024F4019709F463C06BC08831910581F094
S1132D80889749F165C08091710099278C7F0897D5
S1132D9009F05AC080916A038093730088E1AFCF31
S1132DA08091710099278C7F489709F04DC08091DC
S1132DB0640390916503E0916203F0916303E80F6B
S1132DC0F91F019690936503809364038081809337
S1132DD0730088E294CF8091710099278C7F889743
S1132DE099F5209164033091650380916603909175
S1132DF0670328173907A8F4E0916203F09163038D
S1132E00E20FF31F2F5F3F4F30936503209364035A
S1132E108081809373008091740080688093740033
S1132E2017C0809174008061809374008091740055
S1132E3080688093740081E08093690309C0809165
S1132E4074008E7F8093740085E593E00E949D2E2C
S1132E50FF91EF91BF91AF919F918F917F916F916E
S1132E605F914F913F912F910F900FBE0F901F9044
S1132E7018950F931F938B0121E020937003909377
S1132E807203809371038091790390917A039093F4
S1132E90780380937703709376036093750310929D
S1132EA0740310927303E39A8BE693E00E94D22E8C
S1132EB08091790390917A03800F911F90937A0304
S1132EC080937903C8011F910F9108950F931F9365
S1132ED08B0110927003909372038093710380911D
S1132EE0790390917A039093780380937703709396
S1132EF07603609375031092740310927303E39A3C
S1132F008BE693E00E94D22E8091790390917A030C
S1132F10800F911F90937A0380937903C8011F91C6
S1132F200F910895CF93DF93CDB7DEB78D818130B4
S1132F3019F087E690E008C08E819F8190937A0310
S1132F408093790380E090E0DF91CF91089584E647
S1132F5090E0089560E070E08BE693E00E94772EA5
S1132F608CE395E00E94282708951F920F920FB6D4
S1132F700F9211242F933F934F935F936F937F93FB
S1132F808F939F93AF93BF93EF93FF9380917003BD
S1132F90209173033091740340917503509176032B
S1132FA08823F1F424173507B0F5809177039091C5
S1132FB07803820F931F9FBB8EBBE0917103F09146
S1132FC07203E20FF31F2F5F3F4F3093740320937C
S1132FD0730380818DBB8CE08CBB8EE08CBB20C0E6
S1132FE024173507C0F48091770390917803820FFA
S1132FF0931F9FBB8EBBE09AE0917103F091720323
S1133000E20FF31F8DB380832F5F3F4F3093740320
S11330102093730305C0E3988BE693E00E94B62ED9
S1133020FF91EF91BF91AF919F918F917F916F919C
S11330305F914F913F912F910F900FBE0F901F9072
S1133040189520E030E0FC0101900020E9F7319769
S1133050E81BF90B369760F0FC018381873441F457
S11330608481873429F48581813411F421E030E0AE
S1133070C9010895CF93DF93DC010D900020E9F797
S11330809D0121503040DA011D921C92EC018217FF
S11330909307B8F488818C3281F4DE011D92FA0121
S11330A080819181FC01E80FF91FE60FF71FB183BE
S11330B0A0830196DA018D939C932196C217D307BE
S11330C048F3DF91CF910895EF92FF920F931F93EE
S11330D0CF93DF93CDB7DEB723970FB6F894DEBF57
S11330E00FBECDBF20E030E040E050E079018A011E
S11330F0DC0183E0FE01319611928A95E9F78C9107
S1133100882331F429813A814B81BA01A9011EC077
S11331102AE08202C0011124FD015181580F50514F
S1133120598382818202C00111244381480F405196
S11331304A8384818202900111248581820F805107
S11331408B83E52EF42E082FB801A701CB01BA0119
S113315023960FB6F894DEBF0FBECDBFDF91CF919B
S11331601F910F91FF90EF9008952F923F924F92ED
S11331705F926F927F928F929F92AF92BF92CF9203
S1133180DF92EF92FF920F931F93CF93DF93CDB70C
S1133190DEB725970FB6F894DEBF0FBECDBF22244D
S11331A0722C822C922CFC018B019E012F5F3F4FCD
S11331B085E0D9011D928A95E9F780818823B1F0D1
S11331C0CE0103969F938F933F932F9385E791E0CE
S11331D09F938F93FF93EF930E945633EDB7FEB7FF
S11331E038960FB6F894FEBF0FBEEDBFD8016C91B0
S11331F0662311F06D8302C08FE38D838D81298056
S11332003A804B805C80222D332D442D552D682F20
S1133210772D882D992D25960FB6F894DEBF0FBE15
S1133220CDBFDF91CF911F910F91FF90EF90DF9071
S1133230CF90BF90AF909F908F907F906F905F9052
S11332404F903F902F9008952F923F924F925F920C
S11332506F927F928F929F92AF92BF92CF92DF92A2
S1133260EF92FF920F931F93CF93DF93CDB7DEB707
S113327028970FB6F894DEBF0FBECDBFDC018B01DB
S11332809E012F5F3F4F88E0F90111928A95E9F77B
S11332908C918823F9F0CE0105969F938F93CE01EC
S11332A003969F938F933F932F93452B19F08BE7AE
S11332B091E002C085E891E09F938F93BF93AF9311
S11332C00E9456338DB79EB70A960FB6F8949EBFE8
S11332D00FBE8DBFF8016081662311F0688702C0BC
S11332E08FE38887E88529803A804B805C806D80F5
S11332F07E808F80222D332D442D552D662D772DE4
S1133300882D9E2F28960FB6F894DEBF0FBECDBF32
S1133310DF91CF911F910F91FF90EF90DF90CF90AD
S1133320BF90AF909F908F907F906F905F904F90E1
S11333303F902F9008950F931F93CF93DF93CDB7B2
S1133340DEB7AB970FB6F894DEBF0FBECDBF8B01CF
S113335028E2FB0111922A95E9F71BA61AA619A6E1
S1133360AE01475D5F4FBE016F5F7F4F0E943A1809
S113337089A59AA50E9719F080E090E06BC0898129
S11333809A810E946418F80160837183828341E00A
S113339050E06D817E818B819C810E942419F8010B
S11333A02383348345835683678370878187928719
S11333B040E050E069857A858F8198850E942419C0
S11333C0F80123873487458756876787708B818BFD
S11333D0928B8B859C850E941833F801838B8D8595
S11333E09E850E941833F801848BBE01655D7F4F72
S11333F08F8598890E94B518F801258B368B478BE9
S1133400508F618F6B897C8989899A890E94B5184C
S1133410F801228F338F448F558F668F6F89788D93
S11334208D899E890E94B518F801278F30A341A386
S113343052A363A3898D9A8D0E941833F80195A332
S113344084A38B8D9C8D0E941833F80197A386A3C7
S113345081E090E0AB960FB6F894DEBF0FBECDBF0F
S1133460DF91CF911F910F9108950F931F938C01BA
S1133470FC01828199279F938F93818199279F9340
S11334808F93808199279F938F938FE891E09F93E7
S11334908F930E947704F8018285992787FD909580
S11334A09F938F93878190859F938F938581968136
S11334B09F938F93838194819F938F9385EA91E067
S11334C09F938F930E947704F8018289992787FD3F
S11334D090959F938F93878590899F938F938585EC
S11334E096859F938F93838594859F938F9382EC86
S11334F091E09F938F930E947704F8018389992721
S11335009F938F938FED91E09F938F930E94770405
S11335108DB79EB780960FB6F8949EBF0FBE8DBF31
S1133520F801848999279F938F9389EE91E09F9363
S11335308F930E947704F8018789908D9F938F93CE
S1133540858996899F938F9383EF91E09F938F93BF
S11335500E947704F801868D992787FD90959F93A3
S11335608F93848D958D9F938F93828D938D9F934D
S11335708F9380E092E09F938F930E947704F801E9
S113358083A1992787FD90959F938F9381A192A101
S11335909F938F93878D90A19F938F9380E192E067
S11335A09F938F930E947704F80184A195A19F9320
S11335B08F9380E292E09F938F930E947704F801A7
S11335C086A197A19F938F938AE292E09F938F9312
S11335D00E9477048DB79EB782960FB6F8949EBF6B
S11335E00FBE8DBF1F910F910895CF93DF93CDB779
S11335F0DEB78D81813021F018F087E690E004C0B9
S113360080937C0380E090E0DF91CF910895DC010A
S113361020E030E0AB01415050402417350798F4C6
S1133620FC0180919B008823E4F780919C008D30FD
S113363039F08A3011F4108206C081932F5F3F4F16
S11336402417350770F3615070402617370719F4B3
S1133650A20FB31F1C92C9010895FC0190E0809150
S11336609B008823E4F780919C00803A11F491E058
S1133670F6CF823A99F7913089F780EA808382EA1B
S1133680818380919B008823E4F780919C00282FFC
S11336903327322F2227228380919B008823E4F74B
S11336A080919C009927282B392B2383C9010896E4
S11336B06817790778F43F932F9385E392E09F93FB
S11336C08F930E94770480E090E00F900F900F900A
S11336D00F90089544E050E0240F351F421753071C
S11336E070F4E40FF51F80919B008823E4F7809128
S11336F09C0081934F5F5F4F42175307A0F3CA01A9
S11337000895CF93DF93CDB7DEB721970FB6F89422
S1133710DEBF0FBECDBF88E490E09F938F9383E01C
S11337208F930E94D61561E070E0CE01860F971F3B
S11337300E946F1489818F77898361E070E0CE01E4
S1133740860F971F0E942A150F900F900F901982D1
S113375061E070E0CE01860F971F0E946F1489818B
S11337608823ACF321960FB6F894DEBF0FBECDBF0D
S1133770DF91CF910895CF93DF93CDB7DEB7219733
S11337800FB6F894DEBF0FBECDBF82E390E09F93E7
S11337908F9385E08F930E94D61588E490E09F93E1
S11337A08F9383E08F930E94D61561E070E0CE0181
S11337B0860F971F0E946F1489818068898361E056
S11337C070E0CE01860F971F0E942A158DB79EB711
S11337D006960FB6F8949EBF0FBE8DBF198261E0A6
S11337E070E0CE01860F971F0E946F148981882391
S11337F0ACF721960FB6F894DEBF0FBECDBFDF91B4
S1133800CF9108951F93CF93DF93CDB7DEB7219760
S11338100FB6F894DEBF0FBECDBF182F80919A006B
S11338208F7680939A0080919A00806180939A00A9
S113383089E490E09F938F9383E08F930E94D61541
S113384061E070E0CE01860F971F0E946F1489819A
S1133850812B898361E070E0CE01860F971F0E945F
S11338602A150F900F900F90198261E070E0CE013D
S1133870860F971F0E946F14898181238117A1F7F6
S113388021960FB6F894DEBF0FBECDBFDF91CF9166
S11338901F9108951F93CF93DF93CDB7DEB7219780
S11338A00FB6F894DEBF0FBECDBF182F89E490E0A9
S11338B09F938F9383E08F930E94D61561E070E00D
S11338C0CE01860F971F0E946F14912F90958981C6
S11338D08923898361E070E0CE01860F971F0E94DF
S11338E02A150F900F900F90198261E070E0CE01BD
S11338F0860F971F0E946F1489818123A9F78091F5
S11339009A008F7E80939A0021960FB6F894DEBFBA
S11339100FBECDBFDF91CF911F9108950F931F93D9
S1133920CF93DF938C01EB0180917B03882329F4EF
S11339300E94BB1B83E00E94021C82E00E94021CC6
S113394080917C0399270097B1F00197C1F4A8975F
S1133950B1F460E670E08DE793E00E94071B8DE709
S113396093E00E942118892BA1F3B8018DE793E01D
S11339700E949B1904C0BE01C8010E94071B8091CC
S11339807B03882329F483E00E944A1C0E94811B44
S113399081E090E0DF91CF911F910F910895EF9214
S11339A0FF920F931F93CF93DF93CDB7DEB7C3542A
S11339B0D0400FB6F894DEBF0FBECDBF7C018B01A3
S11339C082E00E944A1C81E00E94021C82E08F93E4
S11339D00E949508A801B701CE0103960E944533C1
S11339E0FE01ED5BFF4F0083CE0101960E94550856
S11339F00F9080919B0086FFFCCF80919B00806498
S1133A0080939B0081E00E944A1C82E00E94021C79
S1133A1080E090E0CD5BDF4F0FB6F894DEBF0FBEC1
S1133A20CDBFDF91CF911F910F91FF90EF9008953B
S1133A30882341F480937B0383E00E944A1C0E9404
S1133A40811B09C0823051F480937B0383E00E9480
S1133A504A1C0E94BB1B80E090E0089584E690E03D
S1133A60089582E495E00E94282710927B03109227
S1133A707C03089560E070E08DED93E00E94772E62
S1133A8088E495E00E9428271092E203379881E0A9
S1133A908093E30386B1866086B90895379887B921
S1133AA08093E30386B1886986B908951F93CF9301
S1133AB0DF93182F8091E203882319F486B1886973
S1133AC086B98091E303181719F0812F0E944E1DC7
S1133AD03398349A86B1806C86B93699FECF84B116
S1133AE0C82FDD2785B19927982F8827C82BD92B74
S1133AF08091E303181711F00E944E1D8091E20398
S1133B00882309F43798CE01DF91CF911F9108954E
S1133B100F931F93CF93C82F8091E203882319F446
S1133B2086B1886986B98091E303C81719F08C2F90
S1133B300E944E1D349A86B1886C86B98DED93E04F
S1133B400E94D22E0091E4031091E5038091E303D7
S1133B50C81711F00E944E1D8091E203882309F4D6
S1133B603798C801CF911F910F9108950E94881D25
S1133B709695879596958795992708950F931F9302
S1133B80CF93DF938C01EB016130710539F480919F
S1133B90E3030E94B61DF801808309C08091E3030A
S1133BA00E94881DF80191838083C2E0D0E0CE0199
S1133BB0DF91CF911F910F91089584E690E00895CD
S1133BC0282F8091E203422F5527821771F020930A
S1133BD0E2034115510521F04230510519F005C0A9
S1133BE0379803C086B1886986B9CA0108950F93CE
S1133BF01F93CF93DF93CDB7DEB78F81082F1127A3
S1133C0007FD10950115110519F087E690E007C02E
S1133C10888599858093E3030E944E1DC801DF9136
S1133C20CF911F910F9108951F920F920FB60F928B
S1133C3011242F933F934F935F936F937F938F93AD
S1133C409F93AF93BF93EF93FF9384B1282F3327B0
S1133C5085B19927982F8827282B392B3093E50392
S1133C602093E4038DED93E00E949D2EFF91EF914C
S1133C70BF91AF919F918F917F916F915F914F9180
S1133C803F912F910F900FBE0F901F90189587B3FF
S1133C90866087BB88B3866088BBB89AC09ABB9895
S1133CA08EE495E00E9428278DB180658DB9709AC5
S1133CB0089584E690E0089520E030E02617370761
S1133CC068F4FC011FB8779BFECF779BFECF8FB1C2
S1133CD081932F5F3F4F26173707A0F3CB01089539
S1133CE0FC016230710559F420813181832F9927B9
S1133CF08FB9779BFECF2FB9779BFECF0DC020E005
S1133D0030E02617370740F480818FB9779BFECFC8
S1133D102F5F3F4F3196F5CFCB010895CF93DF93BB
S1133D20CDB7DEB78D81992787FD9095009719F05F
S1133D30019739F008C08E819F81892B21F4C098A6
S1133D4005C0C09A03C087E690E002C080E090E01E
S1133D50DF91CF91089584E595E00E9428270E9481
S1133D60E232D39ADB9A95988D9A92988A98939A8C
S1133D708B9A8FBF83E08093EE031092E603109238
S1133D80E7031092E8031092E90381E08093EA03C9
S1133D9080E098E09093EC038093EB031092ED03A2
S1133DA080E29EE40E94D12F08951F9310E00E94A8
S1133DB0E232982F82B3877D82BB959A82991068EC
S1133DC082BB959A8299106482BB959A82991062FB
S1133DD082BB959A8299106182BB959A82991860E8
S1133DE082BB959A8299146082BB959A82991260DB
S1133DF082BB959A829911609FBF812F99271F9149
S1133E0008950F931F93082F10E00E94E232982F19
S1133E1082B3877D82BB07FD939A959A82BB06FD88
S1133E20939A959A82BB05FD939A959A82BB04FD59
S1133E30939A959A82BB03FD939A959A82BB02FD4D
S1133E40939A959A82BB01FD939A959A82BB00FD41
S1133E50939A959A9FBF812F99271F910F91089547
S1133E60FF920F931F93CF93DF93CDB7DEB72497C1
S1133E700FB6F894DEBF0FBECDBF813011F483E8D6
S1133E8001C086E889838E010F5F1F4FCB01880F25
S1133E90892F881F990B9195F8018183862F880FAC
S1133EA08B831C820E94E2329598DB988FBF83E05B
S1133EB0F82EF80181918F010E94011FFA94F7FEF8
S1133EC0F8CFDB9A81E090E024960FB6F894DEBF39
S1133ED00FBECDBFDF91CF911F910F91FF90089539
S1133EE01F930E94E2329598DB988FBF0E94E232C2
S1133EF0182F87ED0E94011F0E94D51E1FBFDB9A59
S1133F00992787FD9095809590958827990F881F0C
S1133F1099271F9108951F93CF93DF93CDB7DEB7F1
S1133F208E81992787FD909582309105B1F0833079
S1133F3091051CF4019721F028C0059734F528C099
S1133F408F819885A985BA858093E6039093E703CA
S1133F50A093E803B093E9031BC08091ED03882389
S1133F60B9F00E94701F182F8823D9F76091EB03D2
S1133F707091EC038091EA030E94301F1093ED03CB
S1133F800E94701F8823E1F703C087E690E002C017
S1133F9080E090E0DF91CF911F9108951F93CF931C
S1133FA0982F10E08091EE03891719F480E090E0D7
S1133FB031C09093EE03892F99278330910519F02E
S1133FC00497C9F024C08091ED03882309F10E946D
S1133FD0701FC82F8823D9F76091EB037091EC030D
S1133FE08091EA030E94301FC093ED030E94701F6A
S1133FF08823E1F70DC081E08093EA0380E098E034
S11340009093EC038093EB031093ED0301C018E647
S1134010812F9927CF911F9108954F925F926F92AC
S11340207F928F929F92AF92BF92CF92DF92EF9244
S1134030FF920F931F93CF93DF93CDB7DEB72897EB
S11340400FB6F894DEBF0FBECDBF2B013C01E0904C
S1134050E603F090E7030091E8031091E903C80137
S1134060B70128E031E040E050E00E945736690192
S1134070C801B70128E031E040E050E00E94573623
S1134080DC01CB014C018091ED038823A1F1A090C8
S1134090EB03B090EC03AC14BD0468F17601002787
S11340A01127C401AA27BB27840D951DA61DB71D82
S11340B0BC01CD0128E031E040E050E00E945736D9
S11340C0E20EF31E041F151FC501AA27BB27E8161D
S11340D0F9060A071B0778F00E94701F182F88231F
S11340E0D9F76091EB037091EC038091EA030E948D
S11340F0301F1093ED030E94701F382F8823D9F7C7
S113410088EE8983C601880F892F881F990B9195A2
S11341108A832C2D220F892D9927282B2B838C827F
S11341203D833E833F8338870E94E2329598DB9833
S11341308FBFEE24FF248701FE01EE0DFF1D818158
S11341400E94011F0894E11CF11C011D111D88E04F
S1134150E816F1040105110578F3EFEFCE2EDE2EFB
S1134160EE24FF248701E414F5040605170508F579
S11341700E94D51E682F30E841E250E127E09D2DD2
S1134180991F9927991FCC0CDD1C862F832319F0C6
S11341900894C11CD11C992311F0C426D526369548
S11341A0215027FFECCF0894E11CF11C011D111DC7
S11341B0DACF41E250E12FE09D2D991F9927991FF5
S11341C0CC0CDD1C992311F0C426D526215027FFE1
S11341D0F3CFDB9AC60128960FB6F894DEBF0FBE64
S11341E0CDBFDF91CF911F910F91FF90EF90DF90A2
S11341F0CF90BF90AF909F908F907F906F905F9083
S11342004F900895FF920F931F93CF93DF93CDB7F1
S1134210DEB724970FB6F894DEBF0FBECDBF813052
S113422011F483E501C085E589838E010F5F1F4F7B
S1134230CB01880F892F881F990B9195F8018183F1
S1134240862F880F8B831C820E94E2329598DB981C
S11342508FBFB3E0FB2EF80181918F010E94011FF3
S1134260FA94F7FEF8CFDB9A81E090E024960FB63B
S1134270F894DEBF0FBECDBFDF91CF911F910F9198
S1134280FF900895AF92BF92CF92DF92EF92FF9288
S11342900F931F93CF93DF93CDB7DEB724970FB659
S11342A0F894DEBF0FBECDBF5A016901813011F40D
S11342B084E801C087E889838E010F5F1F4FF801EE
S11342C01182872F99278B836C830E94E232959801
S11342D0DB988FBF34E0E32EF12CEC0EFD1EF801C9
S11342E081918F010E94011FE016F106C0F7C114ED
S11342F0D10451F075018601F70181917F010E947B
S1134300011F01501040C1F7DB9A81E090E0249630
S11343100FB6F894DEBF0FBECDBFDF91CF911F91D2
S11343200F91FF90EF90DF90CF90BF90AF900895E2
S11343303F924F925F926F927F928F929F92AF9231
S1134340BF92CF92DF92EF92FF920F931F93CF937E
S1134350DF93CDB7DEB724970FB6F894DEBF0FBE58
S1134360CDBF2C015B016624772433248091ED03B7
S1134370882379F00E94701F182F8823D9F7609141
S1134380EB037091EC038091EA030E94301F1093B9
S1134390ED030E94701F8823E1F7A114B10409F40E
S11343A092C0E090E603F090E7030091E8031091D7
S11343B0E903C801B70128E031E040E050E00E9481
S11343C057366901C801B70128E031E040E050E008
S11343D00E945736DC01CB018C01C501800F911F6F
S11343E08950914038F0E8E08E2EE1E09E2E801A4C
S11343F0910A01C0450188E0881681E0980640F4DE
S1134400B60181E00E9402210E94701F8823E1F717
S1134410C201860D971D9401AC01B80181E00E9490
S1134420422180E689838E010F5F1F4FC601880FEA
S1134430892F881F990B9195F80181838C2D880F02
S11344408B831C820E94E2329598DB988FBF63E0D5
S1134450E62EF80181918F010E94011FEA94E7FE84
S1134460F8CFDB9A0E94E2329598DB988FBF87EDF4
S11344700E94011F0E94D51EDB9A88239CF3992772
S113448080749070882319F051E0352E1CC0680C9C
S1134490791C9401442755278091E6039091E70302
S11344A0A091E803B091E903820F931FA41FB51FE5
S11344B08093E6039093E703A093E803B093E903A2
S11344C0A818B9086ACF9501442755278091E603B7
S11344D09091E703A091E803B091E903820F931F41
S11344E0A41FB51F8093E6039093E703A093E8030A
S11344F0B093E903832D992724960FB6F894DEBF71
S11345000FBECDBFDF91CF911F910F91FF90EF9020
S1134510DF90CF90BF90AF909F908F907F906F90DF
S11345205F904F903F900895FF920F931F93CF9306
S1134530DF93CDB7DEB724970FB6F894DEBF0FBE76
S1134540CDBF9C0181E889838E010F5F1F4FC90194
S1134550880F892F881F990B9195F8018183822FE9
S1134560880F8B831C820E94E2329598DB988FBF60
S1134570F3E0FF2EF80181918F010E94011FFA944C
S1134580F7FEF8CFDB9A81E090E024960FB6F8941A
S1134590DEBF0FBECDBFDF91CF911F910F91FF9072
S11345A008956F927F928F929F92AF92BF92CF9213
S11345B0DF92EF92FF920F931F93CF93DF933C010F
S11345C06B0188249924E090E603F090E7030091BE
S11345D0E8031091E903C801B70128E031E040E0A5
S11345E050E00E945736E901C801B70128E031E0E4
S11345F040E050E00E945736DC01CB015C010E9490
S1134600701F8823E1F7C114D10409F499C0C601CD
S11346108A0D9B1D8950914028F008E011E00A1989
S11346201B0901C086018091EE03843009F049C062
S11346308091EB039091EC03C817D907A1F1809105
S1134640ED03882379F00E94701FE82E8823D9F7A0
S11346506091EB037091EC038091EA030E94301F98
S1134660E092ED038091EA03813011F482E001C00D
S113467081E08093EA03D093EC03C093EB0381E0E1
S11346800830180748F40E94701F8823E1F7BE0120
S11346908091EA030E9402210E94701F8823E1F79F
S11346A0CE010E949422C301880D991D9801AC018A
S11346B0B5018091EA030E94422181E08093ED03D9
S11346C020C0BE0181E00E9402210E94701F882345
S11346D0E1F7CE010E9494220E94701F8823E1F723
S11346E0C301880D991D9801AC01B50181E00E94B8
S11346F04221BE0181E00E94301F0E94701F882366
S1134700E1F7800E911E9801442755278091E60316
S11347109091E703A091E803B091E903820F931FFE
S1134720A41FB51F8093E6039093E703A093E803C7
S1134730B093E903C01AD10A2196AA24BB2463CFFB
S1134740C601DF91CF911F910F91FF90EF90DF9001
S1134750CF90BF90AF909F908F907F906F9008956F
S11347608F929F92AF92BF92CF92DF92EF92FF927D
S11347700F931F93CF93DF93CDB7DEB728970FB670
S1134780F894DEBF0FBECDBF4C015B01E090E603A1
S1134790F090E7030091E8031091E903C801B70121
S11347A028E031E040E050E00E9457366901C8013A
S11347B0B70128E031E040E050E00E945736DC01C8
S11347C0CB018C018091ED03882319F12091EB0337
S11347D03091EC032C153D05E0F0C8018A0D9B1DBA
S11347E068E071E00E944336CB018C0D9D1D821759
S11347F0930778F00E94701FF82E8823D9F76091F0
S1134800EB037091EC038091EA030E94301FF09255
S1134810ED030E94701F382F8823D9F788EE89830F
S1134820C601880F892F881F990B91958A832C2D97
S1134830220F812F9927282B2B830C833D833E83C2
S11348403F8338870E94E2329598DB988FBF00E05F
S113485010E0FE01E00FF11F81810E94011F0F5F34
S11348601F4F08301105A8F3A114B10451F07401CD
S113487085010E94D51EF70181937F0101501040EC
S1134880C1F7DB9AC50128960FB6F894DEBF0FBEB8
S1134890CDBFDF91CF911F910F91FF90EF90DF90EB
S11348A0CF90BF90AF909F908F900895AC0120E07F
S11348B06115710589F0E22FFF27DA01AE0FBF1FE2
S11348C0E151FC4F80818C932F5F263028F4822F96
S11348D099278617970778F3822F9927089584E6F6
S11348E090E0089584E690E00895CF93DF93CDB7E8
S11348F0DEB787E690E0DF91CF9108951F93D49AB5
S1134900DC9886E090E00E94D12FDC9AD49889E06C
S113491090E00E94D12F19B3107187E390E00E94B8
S1134920D12F812F99271F910895CF92DF92FF9263
S11349300F931F93CF93DF93CDB7DEB721970FB6B5
S1134940F894DEBF0FBECDBF8AE595E00E9428270C
S1134950D498DC9A0E94E232F82ED498DC9AD49A45
S1134960DC9880EE91E00E94D12FDC9AD49886E402
S113497090E00E94D12F19B310718AE991E00E944E
S1134980D12F112309F04AC080EE91E00E94D12F6B
S113499013E307E010FF0BC0D49ADC9886E090E0A4
S11349A00E94D12FDC9AD49880E490E00AC0D49A73
S11349B0DC988CE390E00E94D12FDC9AD4988AE0B2
S11349C090E00E94D12F1695015007FFE3CF17E026
S11349D00E947E24115017FFFBCF90E0C92EDD24E6
S11349E02FEE33E0C20ED31E10E007E01695998334
S11349F00E947E24998181111068015007FFF6CF2F
S1134A00F60110839F5F963048F317E00E947E24DE
S1134A10115017FFFBCFD498DC98FFBED498DC98D4
S1134A2021960FB6F894DEBF0FBECDBFDF91CF91B4
S1134A301F910F91FF90DF90CF900895FC01CB015F
S1134A40F093F603E093F503069791838083F38351
S1134A50E283F583E4830895FC01AC014A5F5F4F70
S1134A6020E030E0808191812817390750F46FEEFF
S1134A70DA016D932F5F3F4F8081918128173907A9
S1134A80C0F30895CF93DF93AC012091F5033091E7
S1134A90F6032115310511F4C90178C0F901C0E00C
S1134AA0D0E080FF02C04F5F5F4F60817181641767
S1134AB0750740F0209729F0888199816817790754
S1134AC008F4EF010480F581E02DE217F30769F79C
S1134AD0209711F4CE015AC0CA0106962881398163
S1134AE08217930798F1AA81BB81AC17BD0729F4FB
S1134AF01092F6031092F50309C08C819D81FD018B
S1134B0095838483EC81FD81B383A2838091F50333
S1134B109091F603C817D90731F48C819D81909345
S1134B20F6038093F503BE016A5F7F4F40E050E0D7
S1134B304217530750F52FEEFB0121934F5F5F4F50
S1134B408881998148175907C0F31FC0FE01E20FFD
S1134B50F31FE41BF50B241B350B2650304039831F
S1134B60288351834083BF016A5F7F4F20E030E098
S1134B702417350750F44FEEDB014D932F5F3F4F61
S1134B808081918128173907C0F3CB01DF91CF9140
S1134B900895CF93DF93AC01DB01EB018C819D8100
S1134BA0FA0195838483EC81FD8153834283EA0176
S1134BB0888199812D913C91820F931F0696998348
S1134BC08883DF91CF910895CF93DF93EC012697EB
S1134BD08091F5039091F603009749F4D093F6037E
S1134BE0C093F503DD83CC83DB83CA8324C0DC015B
S1134BF0AC17BD0730F4FD01A481B581A817B9072E
S1134C00B9F7BD83AC83FD01828193819B838A8341
S1134C1082819381FC01D583C483FD01D383C28344
S1134C208091F5039091F603C817D90720F4D09327
S1134C30F603C093F50328813981DE01A20FB31F67
S1134C40CD010696EC81FD81E817F90791F4848182
S1134C5095819D838C830480F581E02DD383C28369
S1134C60FD0186819781280F391F2A5F3F4F3983C1
S1134C702883AA81BB812D913C911197CE01821B7F
S1134C80930B0697A817B90789F48C819D81FD01C0
S1134C9095838483EC81FD81B383A2838881998188
S1134CA0280F391F2A5F3F4F2D933C93DF91CF91FB
S1134CB00895FC0120E030E0448155812417350734
S1134CC058F40280F381E02D81918F3E29F42F5F07
S1134CD03F4F24173507C0F3C9010895CF92DF92DF
S1134CE0EF92FF920F931F93CF93DF93C82E80E828
S1134CF0E82E80E1F82E84E695E0E81AF90ADD242E
S1134D0000E010E0C091F503D091F603209769F11B
S1134D10CC20E1F0888199819F938F932696DF932D
S1134D20CF932697DF93CF938D2D99279F938F93BE
S1134D308FEB90E09F938F930E940E068DB79EB7E2
S1134D400A960FB6F8949EBF0FBE8DBFD394888188
S1134D509981080F191F0C80DD81C02D8091F50306
S1134D609091F603C817D90799F6FF92EF921F9313
S1134D700F93C701801B910B9F938F938D2D9927C0
S1134D809F938F938CE890E09F938F930E940E06DD
S1134D908DB79EB70A960FB6F8949EBF0FBE8DBF0F
S1134DA0DF91CF911F910F91FF90EF90DF90CF9003
S1134DB008958CE395E00E9430271F921F9281E0B2
S1134DC08F930E94921762E070E081E692E00E9465
S1134DD039178CE395E00E9461270F900F900F9094
S1134DE0089580916102909162020895CF93DF93B8
S1134DF0CDB7DEB722970FB6F894DEBF0FBECDBF96
S1134E009A8389838CE395E00E9430271F921F9236
S1134E1081E08F930E94921762E070E0CE010196C8
S1134E200E9466178CE395E00E94612789819A812C
S1134E3090936202809361020F900F900F902296DC
S1134E400FB6F894DEBF0FBECDBFDF91CF910895AA
S1134E50FC01118210821382128215821482089539
S1134E600F931F93CF93DF93EC0100916205109190
S1134E7063050E94E232282F88819981892BC9F029
S1134E808A819B81009741F41B830A831D830C83D1
S1134E90F801918B808B09C0EC81FD81118B008B13
S1134EA01D830C83F801118A108A822F0E94292AFB
S1134EB003C0198308832FBFDF91CF911F910F91F6
S1134EC00895FF920F931F93CF93DF93EC0100910A
S1134ED06205109163050E94E232F82E888199815F
S1134EE08017910779F4CE0102960E943A32009716
S1134EF039F099838883FFBE6F2D0E94AE2903C0C9
S1134F0099838883FFBEDF91CF911F910F91FF900A
S1134F1008950F931F93CF93DF93EC0100916205E3
S1134F20109163050E94E232282F888199810097AD
S1134F3021F02FBF81E090E003C0198308832FBFC5
S1134F40DF91CF911F910F9108950E94E232109248
S1134F509704109296048FBF08950E94E232282F7E
S1134F6081E090E090939704809396042FBF089576
S1134F7080919604909197040895F89480E890E1C4
S1134F8084569540BC0184E695E00E941E252DEFD1
S1134F9033E091E0F90185E011821082148695874F
S1134FA01686118A108A138A128A8150759687FF91
S1134FB0F3CF30936305209362059093090484E052
S1134FC080930B0481E090E090939704809396047F
S1134FD020E830E1309300042093FF0380E890E060
S1134FE09093020480930104F9018DB79EB72817AA
S1134FF0390728F42FEE2193E817F907E0F3EDE7DA
S1135000F4E084E01182108213821282815034967B
S113501087FFF8CF0895CF93DF93EC018C8583301D
S113502081F58E85A82FBB27AA0FBB1FAA0FBB1F14
S1135030A358BB4F2D913C9111972115310581F453
S1135040CD93DC938E85E82FFF27EE0FFF1FEE0F25
S1135050FF1FE358FB4FD383C283398B288B0BC0CC
S1135060FD0182819381FC01D18BC08BFD01D3832F
S1135070C283198A188A1B8A1A8A82E08C878885D7
S11350808D87DF91CF9108951092FA031092F70360
S11350908F938FB7F8948F93FF93EF93DF93CF930E
S11350A0BF93AF939F937F936F935F934F933F937C
S11350B02F931F930F93FF92EF92DF92CF92BF92A1
S11350C0AF929F928F927F926F925F924F923F9294
S11350D02F928DB79EB7E0916205F091630591839D
S11350E080838485813081F582E08487C091620564
S11350F0D09163058E85A82FBB27AA0FBB1FAA0FCB
S1135100BB1FA358BB4F2D913C911197211531051D
S113511081F4CD93DC938E85E82FFF27EE0FFF1FDC
S1135120EE0FFF1FE358FB4FD383C283398B288BC9
S11351300BC0FD0182819381FC01D18BC08BFD01E9
S1135140D383C283198A188A109295048091950496
S11351509927880F991F880F991F83589B4F0E9486
S11351603A32FC019093630580936205892B39F4EC
S1135170809195048F5F80939504853038F381E0A6
S11351808487E0916205F0916305808191819EBFDF
S11351908DBF2F903F904F905F906F907F908F9036
S11351A09F90AF90BF90CF90DF90EF90FF900F91C2
S11351B01F912F913F914F915F916F917F919F919B
S11351C0AF91BF91CF91DF91EF91FF918F918FBFFD
S11351D08F91789481E08093FA030895FF920F935E
S11351E01F93CF93DF938C01F62EC0919104D0913D
S11351F09204FE01209711F19801442755278085D8
S11352009185A285B38582179307A407B50748F053
S1135210821B930BA40BB50B80879187A287B3875E
S11352200DC080859185081B190B10861186128686
S113523013860088F189E02D3097F1F6D093FC03B2
S1135240C093FB03209709F451C088859985AA85EA
S1135250BB850097A105B10509F048C081E994E038
S11352600E943A32FC0190937C0480937B0482E098
S11352708487C0917B04D0917C048E85A82FBB27A2
S1135280AA0FBB1FAA0FBB1FA358BB4F2D913C9164
S113529011972115310581F4CD93DC938E85E82F88
S11352A0FF27EE0FFF1FEE0FFF1FE358FB4FD383C3
S11352B0C283398B288B0BC0FD0182819381FC0151
S11352C0D18BC08BFD01D383C283198A188AE091E4
S11352D09104F0919204F093FC03E093FB03309764
S11352E029F080859185A285B385B3CFFFBE0E9446
S11352F04428DF91CF911F910F91FF900895DF9281
S1135300EF92FF920F931F937B018C010E94E23274
S1135310D82EE0916205F091630584E08487E091E2
S11353206205F09163058091F703E80EF11C011DFD
S1135330111DE086F18602871387BF0181E994E09D
S11353400E9485328091F7036D2D99270E94EE28E3
S11353501F910F91FF90EF90DF900895CF93DF930B
S1135360EC018C85833071F58E85A82FBB27AA0F9D
S1135370BB1FAA0FBB1FA358BB4F2D913C91119784
S11353802115310581F4CD93DC938E85E82FFF2719
S1135390EE0FFF1FEE0FFF1FE358FB4FD383C283B3
S11353A0398B288B0BC0FD0182819381FC01D18B49
S11353B0C08BFD01D383C283198A188A82E08C874B
S11353C088858D878091F70399270E94EE28DF91C5
S11353D0CF910895CF93DF93EC010E94E232682FBE
S11353E08C85833071F58E85A82FBB27AA0FBB1F30
S11353F0AA0FBB1FA358BB4F2D913C9111972115A8
S1135400310581F4CD93DC938E85E82FFF27EE0FD1
S1135410FF1FEE0FFF1FE358FB4FD383C283398B6B
S1135420288B0BC0FD0182819381FC01D18BC08B41
S1135430FD01D383C283198A188A82E08C87888508
S11354408D878091F70399270E94EE28DF91CF91F1
S11354500895282FE0916205F0916305118A108A5E
S113546083E08487E0916205F0916305858599273F
S1135470AA27BB2780879187A287B3871586809147
S1135480F703622F99270E94EE280895CF93C82F1F
S1135490823008F0C0E00E94E232282FE0916205D9
S11354A0F0916305118A108A83E08487E091620594
S11354B0F091630585859927AA27BB278087918763
S11354C0A287B387C5878091F703622F99270E942B
S11354D0EE28CF910895CF93DF93BC01C09191043E
S11354E0D0919204FE01209711F19B014427552786
S11354F080859185A285B38582179307A407B50794
S113550048F0821B930BA40BB50B80879187A2876D
S1135510B3870DC080859185681B790B1086118631
S1135520128613860088F189E02D3097F1F6D09326
S1135530FC03C093FB03209709F451C08885998527
S1135540AA85BB850097A105B10509F048C081E98A
S113555094E00E943A32FC0190937C0480937B0493
S113556082E08487C0917B04D0917C048E85A82F2F
S1135570BB27AA0FBB1FAA0FBB1FA358BB4F2D915C
S11355803C9111972115310581F4CD93DC938E85DF
S1135590E82FFF27EE0FFF1FEE0FFF1FE358FB4F0F
S11355A0D383C283398B288B0BC0FD018281938105
S11355B0FC01D18BC08BFD01D383C283198A188A65
S11355C0E0919104F0919204F093FC03E093FB03C7
S11355D0309729F080859185A285B385B3CF0E9449
S11355E04428DF91CF910895CF93DF93682FC09122
S11355F09104D09192042097E1F0282F3327442777
S1135600552788859985AA85BB8582179307A407A2
S1135610B50779F4E0916205F091630596858E856E
S1135620891738F4862F99270E946B2A81E090E02D
S113563002C080E090E0DF91CF9108950E94E232B1
S113564095B7906295BF95B7937E95BF78948895EA
S11356508FBF08951F93CF93DF93C0919104D0918E
S11356609204209709F488C088859985AA85BB850A
S11356708E97A105B10520F00E94A32F892B11F06C
S113568010E012C010910A0491E0E2E1F4E0848594
S1135690882331F08585811718F4182F882321F089
S11356A09F5F7596963098F30E94E232982F212FCF
S11356B033272130310571F485B7886385BF85B7F9
S11356C08B7F85BF87B78F7E87BF1092F9031092B7
S11356D0F80306C085B7806285BF85B7837E85BF22
S11356E09FBF222309F448C0688579858A859B85F4
S11356F061342FE1720720E0820720E0920720F056
S11357002FEF80E49FE11AC06F50704080409040BA
S1135710E2E0660F771F881F991FEA95D1F72DE7FE
S113572030E040E050E00E9457368DE7289FC001EA
S1135730112495958795959587950F969093610576
S113574080936005822F992712BE81BF00B601FCA9
S1135750FDCF00B602FCFACF0E94E232982F87B741
S1135760826087BF80B5846080BD789488959FBF30
S113577080B58B7F80BD71CF0E941E2B6ECF81E0E0
S11357808093FA030E94E7320E94013378940E94C6
S113579044280E942A2B0895DF92EF92FF920F93E0
S11357A01F93CF93DF937C01EB01042F60347105C9
S11357B010F4C0E4D0E0053018F083E090E0ABC012
S11357C00E94E232D82E10E0E9E0F4E08081759680
S11357D0882319F01F5F1630C8F3163021F4DFBE9A
S11357E081E090E098C0CE010E9442259C01892B63
S11357F021F4DFBE82E090E08EC0412F552785E181
S113580090E0489FF001499FF00D589FF00D11243E
S1135810E350FC4F338322832C0F3D1F2150304033
S1135820D583C483F782E68282E08487158606875F
S1135830148B8DB79EB7A0916205B0916305119644
S11358409C938E933EBF2DBF82E99DE28F939F93DD
S11358508EE11F92815087FFFCCF2DB73EB785E1C3
S113586090E0489FF001499FF00D589FF00D1124DE
S1135870E350FC4F318320838D919C919EBF8DBF5B
S1135880A02FBB27AA0FBB1FAA0FBB1FA358BB4F38
S11358902D913C91119721153105D1F485E1189F83
S11358A0C001112483509C4F11969C938E93ED015B
S11358B09B838A8385E190E0489FF001499FF00D26
S11358C0589FF00D1124E350FC4F318B208B1AC0EC
S11358D0ED01EA81FB8185E1189FC0011124835009
S11358E09C4F918B808B9B838A8385E190E0489FBA
S11358F0F001499FF00D589FF00D1124E350FC4F27
S1135900118A108ADFBE8091FA03882311F00E9465
S1135910442880E090E0DF91CF911F910F91FF9098
S1135920EF90DF900895CF92DF92FF920F931F9331
S1135930CF93DF936C018B01EA01F22E84E082178E
S113594018F483E090E0B6C00E94E232782F60E061
S1135950E9E0F4E080817596882319F06F5F663082
S1135960C8F3663021F47FBF81E090E0A3C02097A4
S113597021F47FBF82E090E09DC0FE0106501040FC
S11359802696118300830115110531F02FEEFE01D7
S1135990C80121930197E9F7462F552785E190E047
S11359A0489FF001499FF00D589FF00D1124E350DA
S11359B0FC4FD383C2839E01200F311F21503040FE
S11359C015830483D782C68282E084871586F6868F
S11359D08DB79EB7A0916205B091630511969C9313
S11359E08E933EBF2DBF82E99DE28F939F938EE1FC
S11359F01F92815087FFFCCF2DB73EB785E190E021
S1135A00489FF001499FF00D589FF00D1124E35079
S1135A10FC4F318320838D919C919EBF8DBFAF2D10
S1135A20BB27AA0FBB1FAA0FBB1FA358BB4F2D91A7
S1135A303C91119721153105D1F485E1689FC0018E
S1135A40112483509C4F11969C938E93ED019B835C
S1135A508A8385E190E0489FF001499FF00D589FAB
S1135A60F00D1124E350FC4F318B208B1AC0ED0153
S1135A70EA81FB8185E1689FC001112483509C4F1A
S1135A80918B808B9B838A8385E190E0489FF00112
S1135A90499FF00D589FF00D1124E350FC4F118ADB
S1135AA0108A7FBF8091FA03882311F00E94442852
S1135AB080E090E0DF91CF911F910F91FF90DF90F4
S1135AC0CF9008950F931F93CF930E94E232C82F73
S1135AD020E040916205509163058DEF93E08417B7
S1135AE0950721F02F5F45962630C8F3332785E1CB
S1135AF090E0289F8001299F100D389F100D1124DC
S1135B0003501C4FF801828193810E94E425F8011F
S1135B10148681E08587CFBF0E944428CF911F91CE
S1135B200F910895E0916205F09163050680F78175
S1135B30E02D09950E94622D08957F928F929F9285
S1135B40AF92BF92CF92DF92EF92FF920F931F9387
S1135B50CF93DF93782E8824EE24FF245701CDEFD2
S1135B60D3E0870185E0982E8C85882309F457C0FB
S1135B70CE010E9459266C01772031F18E85992738
S1135B809F938F938C8599279F938F93DF92CF92C6
S1135B908C819D819F938F938A819B819F938F9307
S1135BA0888199819F938F931F930F9385E491E04C
S1135BB09F938F930E940E068DB79EB740960FB6A3
S1135BC0F8949EBF0FBE8DBF83948C819D81E80E97
S1135BD0F91E488159812A813B81CA01821B930B9A
S1135BE0A80EB91E4217530760F41F930F938DEF4D
S1135BF090E09F938F930E940E060F900F900F904A
S1135C000F90CD2861F41F930F9388EE90E09F933B
S1135C108F930E940E060F900F900F900F909A94FE
S1135C200F5F1F4F659697FE9FCFBF92AF92FF9273
S1135C30EF92882D99279F938F9386E191E09F930C
S1135C408F930E940E068DB79EB708960FB6F894F0
S1135C509EBF0FBE8DBFDF91CF911F910F91FF901B
S1135C60EF90DF90CF90BF90AF909F908F907F90F8
S1135C7008951F920F920FB60F9211242F933F9302
S1135C804F935F936F937F938F939F93AF93BF9340
S1135C90EF93FF931DBC1CBC87B78D7F87BF0E9409
S1135CA0E6320E94E73287B7806187BF8091FA03AA
S1135CB0882361F080916005909161050E941D2FF9
S1135CC080916005909161050E946B2AFF91EF918C
S1135CD0BF91AF919F918F917F916F915F914F9100
S1135CE03F912F910F900FBE0F901F901895FC01BC
