S0110000626C696E6B5F6C65642E737265636F
S11300000C9420010C943D010C943D010C943D0191
S11300100C943D010C943D010C943D010C943D0164
S11300200C943D010C943D010C943D010C943D0154
S11300300C94A1330C943D010C943D010C94CA30F2
S11300400C943D010C94D5140C94D10A0C94AA0A76
S11300500C943D010C946E200C940F1A0C943D01E9
S11300600C943D010C943D010C943D010C943D0114
S11300700C943D010C943D010C941F0B0C94F80A54
S11300800C943D010C943D010C943D01D60000D626
S1130090072BD62000D6272BD64000D6472BD66078
S11300A000D6672BD68000D6872BD6A000D6A72BE8
S11300B0D6C000D6C72BD6E000D6E72BD70000D792
S11300C0072BD72000D7272BD74000D7472BD76043
S11300D000D7672BD78000D7872BD7A000D7A72BB3
S11300E0D7C000D7C72BD7E000D7E72BD80000D85C
S11300F0072BD82000D8272BD84000D8472BD8600E
S113010000D8672BD88000D8872BD8A000D8A72B7D
S1130110D8C000D8C72BD8E000D8E72BD90000D925
S1130120072BD92000D9272BD94000D9472BD960D8
S113013000D9672BD98000D9872BD9A000D9A72B48
S11301402543206D656D6F727920626C6F636B73EC
S11301502C20256420616C6C6F63617465642C20B1
S1130160256420667265652C20256420746F746193
S11301706C0A005B25435D3A206E6F64655F743AD8
S113018020253034782C20646174613A2025303481
S1130190782C2073697A652025640A00737461637E
S11301A06B202543206C6F6F6B732066756C6C0A33
S11301B000737461636B20254320686173206F763C
S11301C06572666C6F7765640A00254320746872F3
S11301D0656164732C20256420737461636B2061F2
S11301E06C6C6F63617465642C2025642073746186
S11301F0636B20757365640A0074687265616420BA
S113020025643A2073702025782C20737461636B05
S11302102025782C2073697A652025642C20756E3E
S1130220757365642025642C2073746174652025BE
S1130230432C207072696F726974792025430A0017
S113024011241FBECFEFD0E1DEBFCDBF12E0A0E08E
S1130250B1E0E8E3F3E700E00BBF02C007900D92C2
S1130260A038B107D9F715E0A0E8B2E001C01D92AB
S1130270A838B107E1F70C948B020C940000A0EDB0
S1130280B4E0E1E1F5E093E081918D93915097FF23
S1130290FBCFA4EDB4E0E0E0F1E08EE001900D923C
S11302A08150E1F781E18093100580E00E946502AE
S11302B08EEC94E00E94F91368EB7BE080E090E020
S11302C00E94102CF2CF0F931F93CF93DF93CDB7DF
S11302D0DEB724970FB6F894DEBF0FBECDBF82E021
S11302E00E94790C8C0181E00E946502DE01119666
S11302F09D01A8014E5F5F4F93E0FA018191AF0128
S1130300F90181939F01915097FFF7CF0E5B1F4F27
S1130310F801808102541040F801E80FF11D1282A7
S11303200A5F1F4F1F930F93FD01838199279F93AA
S11303308F93828199279F938F93818199279F938C
S11303408F93898199279F938F938EE091E09F9358
S11303508F930E94D1048DB79EB70C960FB6F89474
S11303609EBF0FBE8DBFBBCF8091140599279F936D
S11303708F938091130599279F938F9380911205F2
S113038099279F938F938091110599279F938F931A
S113039080E391E09F938F930E94D1048DB79EB721
S11303A00A960FB6F8949EBF0FBE8DBF86E591E006
S11303B00E94FD0282E00E94650268EB7BE080E01F
S11303C090E00E94102CF2CF83E00E94DD1164E0E3
S11303D070E081E195E00E944C2643E060E870E023
S11303E08FE391E00E945D2E43E060E870E083E6D5
S11303F091E00E945D2E43E060E870E084EB91E0C0
S11304000E945D2E08958AB387608ABB61E070E024
S11304102091800240E050E032E0CB01042E02C083
S1130420880F991F0A94E2F78095282331504F5F73
S11304305F4F37FFF2CF2093800220952BBB0895A6
S113044083E090E0089521E030E002C0220F331FE2
S11304508A95E2F780918002822B809380028095B6
S11304608BBB089521E030E002C0220F331F8A9530
S1130470E2F7922F909580918002892380938002E5
S113048080958BBB08951F93182F0E9432028FEF23
S11304909FEF0E94C731812F0E9423028FEF9FEFAD
S11304A00E94C731812F0E9432028FEF9FEF0E947A
S11304B0C731812F0E9423028FEF9FEF0E94C73123
S11304C0812F0E9432021F910895282F809180026B
S11304D09927022E02C0959587950A94E2F780FF2A
S11304E004C0822F0E9432020895822F0E942302A8
S11304F008958093800280958BBB08950E94240800
S11305000E94D4020E94A2020E94DC340E9414279A
S11305100E94E4010895CFEFD0E1DEBFCDBF0E9479
S11305204E2A0E9403020E94460B43E060E071E001
S11305308EE792E00E945D2E0E94502E80E090E0B3
S11305400C949B39CF93DF93CDB7DEB721970FB6C9
S1130550F894DEBF0FBECDBF0E94941F0E94A81561
S11305600E94041A0E946B1888E181BD11BC84B7F3
S1130570806884BF0E94C2160E948B1F0E94A12023
S11305800E948B260E94C61461E070E0CE01860FA3
S1130590971F0E94661621960FB6F894DEBF0FBE11
S11305A0CDBFDF91CF91089584EC92E00E94B929E8
S11305B00895CF93DF93EC0188818823D9F090913B
S11305C0C302E92FFF27EF57FD4F899182839F5F75
S11305D09093C3029E3359F41092C1029F5F90938B
S11305E0C30281E892E00E9479081092C3028881D4
S11305F0882329F7DF91CF9108950F931F938C01DE
S113060084EC92E00E94C129C8010E94D902809121
S1130610C30221E832E0F901E80FF11D9AE0928368
S11306208F5FF901E80FF11D12828F5F8093C3027F
S1130630C9010E9479081092C30284EC92E00E94DE
S1130640F22980E090E01F910F9108950F931F937A
S11306508C0184EC92E00E94C12982E08093C30261
S1130660009383021092840281E892E00E94790848
S11306701092C30284EC92E00E94F22980E090E0A0
S11306801F910F910895CF93DF93EC01FC01219604
S113069084918823E1F09091C302E92FFF27EF575B
S11306A0FD4F82839F5F9093C3029E3359F410924F
S11306B0C1029F5F9093C30281E892E00E9479088F
S11306C01092C302FE0121968491882321F7DF91C1
S11306D0CF9108950F931F93CF93DF93EC01062FCF
S11306E01127CE01B8010E940939282F1092DA028D
S11306F0209731F480E38093CA0281E08093DA0288
S1130700C017D10700F1E091DA028E2F2A3028F4C5
S1130710FF27E653FD4F205D04C0FF27E653FD4F3E
S1130720295C2083E82FEF5FCE01B8010E940939CC
S1130730EB01CB01B8010E940939282FC017D1075A
S113074020F7E093DA02222399F08091DA022A302A
S113075030F4E82FFF27E653FD4F205D05C0E82F56
S1130760FF27E653FD4F295C20838F5F8093DA02D5
S11307708091DB029091DA02981720F4891B809310
S1130780DB0202C01092DB028091DB028150809375
S1130790DB028F3FD1F09091C302E92FFF27EF577F
S11307A0FD4F8091DC0282839F5F9093C3029E334E
S11307B059F71092C1029F5F9093C30281E892E0BF
S11307C00E9479081092C302DFCF8091DA02882355
S11307D031F19091C302A92FBB27AF57BD4F809130
S11307E0DA0281508093DA02E82FFF27E653FD4FA7
S11307F08081FD0182839F5F9093C3029E3359F4ED
S11308001092C1029F5F9093C30281E892E00E941C
S113081079081092C3028091DA028823D1F6DF911D
S1130820CF911F910F910895AF92BF92CF92DF9213
S1130830EF92FF920F931F93CF93DF937B018C0171
S1130840A42EBB24CC24DD24C801B701A601950144
S11308500E941D39DC01CB01982FCAECD2E0109222
S1130860DA02E114F1040105110531F480E3809307
S1130870CA0281E08093DA02EA14FB040C051D0528
S113088008F18091DA029E012F5F3F4F9A3010F4F5
S1130890905D01C0995C9883E9018F5F8093DA02CF
S11308A0C801B701A60195010E941D3979018A0189
S11308B0CA01B901A60195010E941D39DC01CB01D1
S11308C0982FDACF992359F08091DA029A3010F4F4
S11308D0905D01C0995C98838F5F8093DA02809168
S11308E0DB029091DA02981720F4891B8093DB02D3
S11308F002C01092DB028091DB0281508093DB0204
S11309008F3FD1F09091C302E92FFF27EF57FD4F9E
S11309108091DC0282839F5F9093C3029E3359F7D8
S11309201092C1029F5F9093C30281E892E00E94FB
S113093079081092C302DFCF8091DA02882331F163
S11309408091DA0281508093DA029091C302A92F38
S1130950BB27AF57BD4FE82FFF27E653FD4F8081DC
S1130960FD0182839F5F9093C3029E3359F41092DA
S1130970C1029F5F9093C30281E892E00E947908CC
S11309801092C3028091DA028823D1F6DF91CF91CD
S11309901F910F91FF90EF90DF90CF90BF90AF9099
S11309A00895DF92EF92FF920F931F93CF93DF93FB
S11309B0CDB7DEB70A851B850115110519F48FEF34
S11309C09FEF7EC184EC92E00E94C1292CE0E22ECC
S11309D0F12CEC0EFD1E1092C30280E4E3E8F2E079
S11309E011928A95E9F7F8018081882309F452C1AC
S11309F0F80181918F01853209F099C08F018081BE
S1130A00803329F48093DC020F5F1F4F03C080E220
S1130A108093DC021092DB02F8012081822F805344
S1130A208A3090F43AE08091DB02839FC001112464
S1130A30280F20532093DB020F5F1F4FF801208102
S1130A40822F80538A3078F3F80181918F0199279E
S1130A5087FD90958436910509F445C08536910546
S1130A60C4F480359105B1F1813591054CF485329A
S1130A70910509F4AAC08334910509F45FC0C4C088
S1130A808236910509F4B5C08336910509F449C04D
S1130A90BBC08F36910509F491C08037910544F4A9
S1130AA08836910509F483C08C36910519F1ACC0E0
S1130AB08337910529F08837910509F448C0A4C00B
S1130AC0F70182E090E0E80EF91E808191810E9496
S1130AD0D90289CFF70182E090E0E80EF91E808107
S1130AE091810E944303F70182E090E0E80EF91E31
S1130AF06AE085C0F70184E090E0E80EF91E808189
S1130B009181A281B3818093DD029093DE02A09350
S1130B10DF02B093E0024AE0BC01CD010E9414045C
S1130B2062CFF70182E090E0E80EF91E8081909197
S1130B30C302E92FFF27EF57FD4F4EC0F70182E0B4
S1130B4090E0E80EF91E80816AE099275AC09091DE
S1130B50C302E92FFF27EF57FD4F80E382839F5F96
S1130B609093C3029E3359F41092C1029F5F9093F5
S1130B70C30281E892E00E9479081092C302909126
S1130B80C302E92FFF27EF57FD4F88E782839F5F5A
S1130B909093C3029E3359F41092C1029F5F9093C5
S1130BA0C30281E892E00E9479081092C302F7011F
S1130BB082E090E0E80EF91E60E121C0F70182E0D6
S1130BC090E0E80EF91E68E01AC09091C302E92F84
S1130BD0FF27EF57FD4F85E282839F5F9093C30207
S1130BE09E3309F000CF1092C1029F5F9093C3021D
S1130BF04AC0F70182E090E0E80EF91E62E08081CD
S1130C0091810E946A03EFCE8091C302E82FFF27EF
S1130C10EF57FD4F9FE3D92ED2828F5F8093C3029B
S1130C208E3351F41092C102D092C30281E892E053
S1130C300E9479081092C3028091C302E82FFF2713
S1130C40EF57FD4FD2828F5F8093C3028E3351F4EE
S1130C501092C102D092C30281E892E00E94790806
S1130C601092C3028091C302E82FFF27EF57FD4F74
S1130C70D2828F5F8093C3028E3309F0B4CE109278
S1130C80C102D092C30281E892E00E9479081092D6
S1130C90C302A9CE8091C302E82FFF27EF57FD4F6F
S1130CA012828F5F8093C30281E892E00E947908E8
S1130CB01092C30284EC92E00E94F22980E090E05A
S1130CC0DF91CF911F910F91FF90EF90DF900895E6
S1130CD0CF92DF92EF92FF921F93CF93DF93CDB722
S1130CE0DEB7EA84FB84E114F10419F48FEF9FEF7B
S1130CF096C184EC92E00E94C1293CE0C32ED12C21
S1130D00CC0EDD1E1092C302F7011491112309F4D5
S1130D1070C197012F5F3F4F1532D9F08091C30204
S1130D20E82FFF27EF57FD4F12838F5F8093C30295
S1130D307901F90114918E3349F71092C1028F5F42
S1130D408093C30281E892E00E9479081092C30262
S1130D50DDCF7901F9011491103341F41093DC02D1
S1130D600894E11CF11CF701149103C080E2809304
S1130D70DC021092DB02812F80538A3098F42AE03F
S1130D8090E0929FC0011124912F980F90530894E2
S1130D90E11CF11CF7011491812F80538A3088F3F0
S1130DA09093DB02812F992787FD909584369105D6
S1130DB009F445C085369105C4F480359105B1F137
S1130DC0813591054CF48532910509F4AAC0833428
S1130DD0910509F45FC0C4C08236910509F4B5C019
S1130DE08336910509F449C0BBC08F36910509F4D7
S1130DF091C08037910544F48836910509F483C085
S1130E008C36910519F1ACC08337910529F08837E8
S1130E10910509F448C0A4C0F60182E090E0C80E30
S1130E20D91E808191810E94D902DDC0F60182E041
S1130E3090E0C80ED91E808191810E944303F6017F
S1130E4082E090E0C80ED91E6AE085C0F60184E015
S1130E5090E0C80ED91E80819181A281B3818093D4
S1130E60DD029093DE02A093DF02B093E0024AE039
S1130E70BC01CD010E941404B6C0F60182E090E0EA
S1130E80C80ED91E80819091C302E92FFF27EF5726
S1130E90FD4F4EC0F60182E090E0C80ED91E80815D
S1130EA06AE099275AC09091C302E92FFF27EF57B0
S1130EB0FD4F80E382839F5F9093C3029E3359F476
S1130EC01092C1029F5F9093C30281E892E00E9456
S1130ED079081092C3029091C302E92FFF27EF57BC
S1130EE0FD4F88E782839F5F9093C3029E3359F43A
S1130EF01092C1029F5F9093C30281E892E00E9426
S1130F0079081092C302F60182E090E0C80ED91E5F
S1130F1060E121C0F60182E090E0C80ED91E68E0CD
S1130F201AC09091C302E92FFF27EF57FD4F85E2C6
S1130F3082839F5F9093C3029E3309F054C0109242
S1130F40C1029F5F9093C30248C0F60182E090E023
S1130F50C80ED91E62E0808191810E946A0343C059
S1130F608091C302E82FFF27EF57FD4F1FE3128341
S1130F708F5F8093C3028E3351F41092C102109399
S1130F80C30281E892E00E9479081092C302809122
S1130F90C302E82FFF27EF57FD4F12838F5F809323
S1130FA0C3028E3351F41092C1021093C30281E83C
S1130FB092E00E9479081092C3028091C302E82F44
S1130FC0FF27EF57FD4F12838F5F8093C3028E3349
S1130FD051F41092C1021093C30281E892E00E947E
S1130FE079081092C3020894E11CF11CF7011491D2
S1130FF08DCE8091C302E82FFF27EF57FD4F128259
S11310008F5F8093C30281E892E00E947908109276
S1131010C30284EC92E00E94F22980E090E0DF9128
S1131020CF911F91FF90EF90DF90CF900895272FDD
S11310303327882321F42093900069B908952093DD
S1131040980060939900089567E070E080E00E9442
S113105017086FE570E081E00E9417081092E10222
S11310601092E20286E08093950080939D001AB866
S113107010929A0060E070E087EF92E00E941E29CF
S113108060E070E08CEF92E00E941E2960E070E066
S113109081E093E00E941E2960E070E086E093E026
S11310A00E941E2984E399E09093E6028093E5026E
S11310B085EA99E09093E4028093E3024BEE52E0D8
S11310C060E070E080E00E94540E8BEE99E0909313
S11310D0EA028093E9028FE59AE09093E802809314
S11310E0E7024FEE52E060E070E081E00E94540EAF
S11310F00895CF93DF93EC0185E195E00E94C12927
S11311000E94D834282FD093EE02C093ED0281E0E0
S11311108093F4028091E102882341F485EA99E006
S11311209093E4028093E30283E507C086EC99E0A0
S11311309093E4028093E3028A818CB98AB1886235
S11311408AB92FBF87EF92E00E94792985E195E063
S11311500E94F22980E090E0DF91CF910895CF932F
S1131160DF93EC018BE195E00E94C1290E94D83401
S1131170282FD093F202C093F10281E08093F5020C
S11311808091E202882341F48FE59AE09093E8028B
S11311908093E70283E507C082E89AE09093E8022F
S11311A08093E7028A8180939C0080919A008862F0
S11311B080939A002FBF8CEF92E00E9479298BE1F3
S11311C095E00E94F22980E090E0DF91CF910895AC
S11311D0CF93DF93CDB7DEB7DF91CF910895CF934F
S11311E0DF93CDB7DEB7DF91CF9108959927833090
S11311F091051CF0039759F008958AB18F768AB946
S113120084E399E09093E6028093E502089584E3F1
S113121099E09093E6028093E5021092F3028AB17A
S113122080698AB908959927833091051CF0039742
S113123069F0089580919A008F7680939A008BEEDE
S113124099E09093EA028093E90208958BEE99E085
S11312509093EA028093E9021092F60280919A0038
S1131260806980939A0008958CB1833531F480911C
S1131270F3028F5F8093F30202C01092F302809115
S1131280F3028230C9F46091EB027091EC026115B3
S1131290710539F08DE599E09093E6028093E502BB
S11312A0089584E399E09093E6028093E5024BEE7F
S11312B052E080E00E94540E0895E091EB02F09118
S11312C0EC02EE5BFF4F8CB18083E091EB02F09176
S11312D0EC02EE5BFF4F8081813438F084E399E0C7
S11312E09093E6028093E50208958EE799E0909347
S11312F0E6028093E5021092F3020895E091EB0276
S1131300F091EC029091F302E90FF11D8CB182830C
S11313109F5F9093F302E091EB02F091EC02EE5B9D
S1131320FF4F8081E254F040981771F484E399E010
S11313309093E6028093E5021092F3024BEE52E0A2
S1131340BF0180E00E94540E089583E58CB980911A
S1131350F4028F5F8093F402823031F485EB99E0DC
S11313609093E4028093E3020895E091ED02F091FA
S1131370EE02EE5BFF4F80818CB986EC99E090938E
S1131380E4028093E3021092F4020895E091ED02E6
S1131390F091EE02EE5BFF4F9091F4028081E254F3
S11313A0F040981781F48AB1877D8AB91092F402CB
S11313B085EA99E09093E4028093E30287EF92E058
S11313C00E9444290895E90FF11D9F5F9093F40250
S11313D082818CB9089580919C00833531F4809189
S11313E0F6028F5F8093F60202C01092F60280919B
S11313F0F6028230C9F46091EF027091F002611537
S1131400710539F085E19AE09093EA028093E9024C
S113141008958BEE99E09093EA028093E9024FEEEF
S113142052E081E00E94540E0895E091EF02F091A1
S1131430F002EE5BFF4F80919C008083E091EF020D
S1131440F091F002EE5BFF4F8081813438F08BEE37
S113145099E09093EA028093E902089587E39AE081
S11314609093EA028093E9021092F6020895E091C3
S1131470EF02F091F0029091F602E90FF11D8091D4
S11314809C0082839F5F9093F602E091EF02F091BB
S1131490F002EE5BFF4F8081E254F040981771F444
S11314A08BEE99E09093EA028093E9021092F6029F
S11314B04FEE52E0BF0181E00E94540E089583E58F
S11314C080939C008091F5028F5F8093F5028230B7
S11314D031F480E79AE09093E8028093E70208955C
S11314E0E091F102F091F202EE5BFF4F8081809374
S11314F09C0082E89AE09093E8028093E7021092BD
S1131500F5020895E091F102F091F202EE5BFF4FD3
S11315109091F5028081E254F040981791F4809103
S11315209A00877D80939A001092F5028FE59AE0E5
S11315309093E8028093E7028CEF92E00E944429A2
S11315400895E90FF11D9F5F9093F50282818093C6
S11315509C0008951F920F920FB60F9211242F939F
S11315603F934F935F936F937F938F939F93AF9327
S1131570BF93EF93FF93E091E302F091E4020995A6
S1131580FF91EF91BF91AF919F918F917F916F9157
S11315905F914F913F912F910F900FBE0F901F902D
S11315A018951F920F920FB60F9211242F933F9309
S11315B04F935F936F937F938F939F93AF93BF9357
S11315C0EF93FF93E091E502F091E6020995FF9114
S11315D0EF91BF91AF919F918F917F916F915F91A7
S11315E04F913F912F910F900FBE0F901F90189520
S11315F01F920F920FB60F9211242F933F934F9384
S11316005F936F937F938F939F93AF93BF93EF9366
S1131610FF93E091E702F091E8020995FF91EF91C1
S1131620BF91AF919F918F917F916F915F914F91F6
S11316303F912F910F900FBE0F901F9018951F92FE
S11316400F920FB60F9211242F933F934F935F93F2
S11316506F937F938F939F93AF93BF93EF93FF9376
S1131660E091E902F091EA020995FF91EF91BF91AF
S1131670AF919F918F917F916F915F914F913F9126
S11316802F910F900FBE0F901F901895CF92DF925D
S1131690EF92FF920F931F93CF93DF930E94D8345E
S11316A0E82E10921A0310921903C5E1D5E026E042
S11316B0F22E9BE1C92E93E0D92E0BE013E0F80142
S11316C0119211928F01CE010E94B929F601119253
S11316D011926F01FA942696F7FEF1CF84E0F82E6A
S11316E083E490E00E948727FC01892B59F08091C4
S11316F0190390911A0391838083F0931A03E09362
S113170019031CC085E00E94790284EF91E00E94D5
S1131710D03187E00E94790284EF91E00E94D031B9
S113172085E00E94790284EF91E00E94D03187E045
S11317300E94790284EF91E00E94D031FA94F7FE7E
S1131740CFCFEFBE80E090E0DF91CF911F910F915A
S1131750FF90EF90DF90CF9008952F923F925F9289
S11317606F927F928F929F92AF92BF92CF92DF92AD
S1131770EF92FF920F931F93CF93DF93CDB7DEB712
S113178024970FB6F894DEBF0FBECDBF182F3A01D1
S11317904B01222433243C822B8280918605909134
S11317A087059A8389830E94D834582E812F9927DC
S11317B0880F991F5BE0E52E53E0F52EE80EF91E25
S11317C0F701A080B180A114B10419F05FBEC1017A
S11317D05DC04BE1C42E43E0D42EC80ED91EF601E1
S11317E080819181892B81F589E99EE090932A0378
S11317F080932903CE01019690932C0380932B03AD
S113180060922D0370922E0380922F0390923003E6
S11318101092310310923203109233031092340366
S113182089E293E00E94813331E0232E312C8091B0
S1131830860590918705F70191838083852D0E9409
S1131840BA2C0E94D834582E2B813C8121153105A5
S113185031F4F601008111810115110531F4F7010C
S1131860B182A0825FBEC50111C0F801808191815F
S1131870F60191838083F70131832083232821F0AB
S113188089E293E00E94DE315FBEC80124960FB660
S1131890F894DEBF0FBECDBFDF91CF911F910F91A2
S11318A0FF90EF90DF90CF90BF90AF909F908F907C
S11318B07F906F905F903F902F9008951F93182F03
S11318C00E94D834282FA12FBB27AA0FBB1FFD01CC
S11318D0E55FFC4F80819181892B21F02FBF80E04F
S11318E090E005C0A55EBC4F8D919C912FBF1F91C8
S11318F00895EF92FF920F931F93CF93DF93182FC6
S11319000E94D834282F812F9927880F991F8C0182
S1131910055F1C4FD801ED90FC90E114F10421F017
S11319202FBF80E090E01FC0EC01C55EDC4F8881D2
S11319309981892B69F48091860590918705F80136
S113194091838083822F0E94BA2C0E94D834282F3E
S1131950E881F9818081918199838883D801ED920E
S1131960FC922FBFCF01DF91CF911F910F91FF9078
S1131970EF9008954F925F927F928F929F92AF92D1
S1131980BF92CF92DF92EF92FF920F931F93CF9368
S1131990DF93CDB7DEB762970FB6F894DEBF0FBE04
S11319A0CDBF6C017A018B01BB24AB2C8B2C0E9424
S11319B0D834982EF1E04F2E512CD6017C9040E083
S11319C050E036E0ABE0B3E0BA01C201042E02C03D
S11319D0880F991F0A94E2F7282F872D822381F01C
S11319E08D919C911197892B11F0E6E9AE2EFB01A4
S11319F0E55EFC4F80819181892B11F0B22A83949A
S1131A0031504F5F5F4F6E5F7F4F129637FFDDCFD0
S1131A10B6E9AB1619F0E0EAAE1621F49FBE8A2DA2
S1131A209927ADC0BB2009F0A5C0E114F10401055C
S1131A30110509F49FC01A8A198A8091860590912C
S1131A408705988B8F8761E0462E512CBC0140E0BE
S1131A5050E037E0EBE0F3E0C201042E02C0880F4F
S1131A60991F0A94E2F7282FD6018C91822311F052
S1131A707183608331504F5F5F4F329637FFECCFF5
S1131A80BFEFEB16BFEFFB06BFEF0B07BFEF1B0764
S1131A90A1F089E99EE09A838983CE010F969C8305
S1131AA08B83ED82FE820F83188719861A861B8624
S1131AB01C86CE0101960E948133892D0E94BA2C86
S1131AC00E94D834982EEFEFEE16EFEFFE06EFEFFC
S1131AD00E07EFEF1E0731F189899A89892BF1F0FE
S1131AE061E070E040E050E037E0EBE0F3E0CB0190
S1131AF0042E02C0880F991F0A94E2F7282FD601FA
S1131B008C91822311F01182108231504F5F5F4F0C
S1131B10329637FFECCFF60110822EC0CE0101962B
S1131B200E94DE3101E010E040E050E037E0ABE13C
S1131B30B3E0BA01C801042E02C0880F991F0A94A9
S1131B40E2F7282FF6018081822361F08D919C9128
S1131B501197892B11F0B22A8394FB01E55FFC4FA6
S1131B601182108231504F5F5F4F6E5F7F4F12962C
S1131B7037FFE0CFD601BC929FBE882D992762968D
S1131B800FB6F894DEBF0FBECDBFDF91CF911F918A
S1131B900F91FF90EF90DF90CF90BF90AF909F9008
S1131BA08F907F905F904F900895CF93DF93EC01D7
S1131BB0892B71F00E94D834282F809119039091B9
S1131BC01A0399838883D0931A03C09319032FBFF0
S1131BD0DF91CF910895FF920F931F93CF93DF93DB
S1131BE0CDB7DEB721970FB6F894DEBF0FBECDBFD9
S1131BF0F82E0F2D112781E090E0002E02C0880FEF
S1131C00991F0A94E2F7898340E050E060E070E0B5
S1131C10CE0101960E94BA0C8981992702C095953C
S1131C2087950A95E2F780FF06C08F2D0E94790CF4
S1131C300E94D50DDECF21960FB6F894DEBF0FBEFD
S1131C40CDBFDF91CF911F910F91FF900895FC01BB
S1131C50EE5BFF4F8081E254F040843018F480E062
S1131C6090E008958281813461F483818B3449F456
S1131C708481853531F485818F3519F481E090E0D4
S1131C80089580E090E00895E0911903F0911A031B
S1131C90309741F08081918190931A0380931903C6
S1131CA0CF010895CF010895EF92FF920F931F93F0
S1131CB0CF93DF93182FEB017A010E94D834082FB9
S1131CC0209751F119821882212F3327F901E20F4D
S1131CD0F31FE55EFC4F80819181009749F0FC0180
S1131CE080819181892B21F00190F081E02DF8CF42
S1131CF0D183C083F901E20FF31FE55FFC4F20811C
S1131D0031812115310541F011821082802F9927EC
S1131D10BC01C9010E949C2A0E94440EF7019183D0
S1131D2080830FBFDF91CF911F910F91FF90EF90B0
S1131D300895FC0181E090E0938382838081918106
S1131D400E949C2A08959C01FB01E20FF31F40832B
S1131D50852F9927818308950F931F93CF93DF9342
S1131D608C01FB01DB01A80FB91F2C933196BF0135
S1131D70680F791FBB27A52F942F832FEB0188832E
S1131D803196BF01600F711FCA01AA27BB27EB015F
S1131D908883FB01852F9927AA27BB278183DF919D
S1131DA0CF911F910F910895DB01A80FB91F8C915A
S1131DB0482F5527FD0181819927982F8827842B47
S1131DC0952B08950F931F938C01FB01E80FF91FC6
S1131DD08081282F3327442755276F5F7F4FFB01CE
S1131DE0E00FF11F80819927AA27BB27BA2FA92FBB
S1131DF0982F8827282B392B4A2B5B2B6F5F7F4F1B
S1131E00FB01E00FF11F80819927AA27BB27DC0182
S1131E1099278827282B392B4A2B5B2B81819927DB
S1131E20AA27BB27B82FAA2799278827282B392B1D
S1131E304A2B5B2BCA01B9011F910F910895FC0134
S1131E4090933B0380933A03EE5BFF4F8081992785
S1131E50BC01CF01805490400E94FC148093410344
S1131E60892F992780934203089580913F059927EC
S1131E7008958AEA8FB980913F038F5F80933F036F
S1131E80803131F489E49FE09093480580934705BD
S1131E90089583E38FB984E59FE090934805809388
S1131EA04705109240030895E0913A03F0913B03F3
S1131EB0EE5BFF4F80818FB91092400385E69FE06F
S1131EC090934805809347050895CF93DF93E0915D
S1131ED03A03F0913B0390914003DF01A90FB11D38
S1131EE09F5F90934003ED018A818FB9EE5BFF4FB2
S1131EF08081981741F41092400386E89FE0909304
S1131F00480580934705DF91CF910895809142035E
S1131F108FB980E99FE09093480580934705089521
S1131F20809141038FB98AE99FE09093480580939B
S1131F30470508958FEF8FB983EA9FE09093480592
S1131F4080934705089583E491E190934805809335
S1131F50470584E493E00E945D2908959FB190931E
S1131F603C0380913D03482F552780913E03682F01
S1131F707727062E02C0440F551F0A94E2F7292F33
S1131F80332788E090E0861B970B02C03595279590
S1131F908A95E2F7842F822B80934103E0913803E2
S1131FA0F0913903EE5BFF4F80819927BC01CF018B
S1131FB0805490400E94FC14209142033327322F16
S1131FC02227409141035527242B352B8217930751
S1131FD099F448E353E0609138037091390382E047
S1131FE00E94540E80914105909142050196909370
S1131FF042058093410509C08091450590914605AD
S11320000196909346058093450583E491E190936E
S11320104805809347050895EFB1E0933C03809110
S11320203D03482F552780913E03682F7727062EBE
S113203002C0440F551F0A94E2F72E2F332788E07D
S113204090E0861B970B02C0359527958A95E2F799
S1132050842F822B809342038EEA9FE0909348055D
S113206080934705E0933D0308959FB190933C030B
S113207080913D03482F552780913E03682F772791
S1132080062E02C0440F551F0A94E2F7292F332766
S113209088E090E0861B970B02C0359527958A95BA
S11320A0E2F7842F822B80934303E0913803F0916D
S11320B0390390914003E90FF11D82839F5F909350
S11320C04003E0913803F0913903EE5BFF4F8081C8
S11320D0981731F48CE090E190934805809347057C
S11320E080913C0380933D0308959FB190933C03FA
S11320F080913D03482F552780913E03682F772711
S1132100062E02C0440F551F0A94E2F7292F3327E5
S113211088E090E0861B970B02C0359527958A9539
S1132120E2F7842F822B809343038150803450F054
S113213080914C0590914D05019690934D058093A7
S11321404C051BC06091380370913903611571050A
S1132150D9F448E353E082E00E94540E809138039E
S113216090913903892B81F480914A0590914B0514
S1132170019690934B0580934A0583E491E19093F3
S1132180480580934705089510924003E091380371
S1132190F0913903EE5BFF4F80914303808385E325
S11321A090E1909348058093470580913C03809388
S11321B03D0308959FB190933C0380913D03833385
S11321C081F1692F7727E7E0F0E080913D03282F24
S11321D03327220F331F40913E03CF01841B910903
S11321E0DB0102C0B595A7958A95E2F72A2B2093C7
S11321F03D03842F8F5F80933E03883080F080916D
S113220043059091440501969093440580934305BA
S113221083E491E19093480580934705089523331F
S1132220A1F685E790E19093480580934705809156
S11322303C0380933D031092400308958FB1809333
S11322403C038A3AB1F08535A1F080913F03873091
S113225048F08AED90E190934805809347051092E9
S11322603E030CC083E491E19093480580934705B5
S113227005C080913F038F5F80933F0380913C03AF
S113228080933D0308958FB180933C038A3A11F003
S1132290853541F410923F038EE191E19093480516
S11322A08093470508951F93CF93C82F162F0E943C
S11322B0D834CC0F949896E0C7FF02C0979A01C017
S11322C097989698969ACC0F915097FFF5CF979A36
S11322D09698969A949A97E017FF02C0979A01C02D
S11322E097989698969A110F915097FFF5CF949AD4
S11322F0979A969A8FBFCF911F910895992781300D
S11323009105C9F0823091051CF4892B39F00895A8
S11323108230910549F1039771F1089510924903B0
S113232061E180E00E94531160E08BE00E94531150
S11323306CE889E012C081E08093490361EE80E09B
S11323400E94531163EF89E00E9453118AEF90E0D9
S11323500E94C73160913F058BE00E9453118AEFC0
S113236090E00E94C73108956FE380E00E9453110A
S113237060E08BE002C06FE380E00E945311089597
S1132380CF93C82F9927009719F0039741F013C0F2
S11323906F9882E00E947E11C09340050CC083E4D4
S11323A091E19093480580934705C093400580E0F0
S11323B00E947E116F9ACF9108951F93182F81E286
S11323C095E00E94C129812F0E94C01181E295E00D
S11323D00E94F2291F910895FC0190933B0380937E
S11323E03A03EE5BFF4F80819927BC01CF018054F3
S11323F090400E94FC1480934103892F9927809375
S1132400420381E00E947E110E94D834282F8093D9
S1132410370389E39FE0909348058093470581E063
S113242080933F038AEA8FB96F9A2FBF84E493E0C5
S11324300E94792980914005833021F46F9A80E0CD
S11324400E947E11089580933F05682F8BE00E94BF
S113245053118AEF90E00E94C73108958091490397
S11324609927089580914905992708951F93CF933B
S1132470C82F10E00E94D834382F949ACC0F949827
S113248096E0969AC7FF02C0979A01C09798CC0F1E
S11324909698915097FFF5CF969A97989698969A12
S11324A0949A979A8F9890E09698292F2F5F812F6E
S11324B09927879B05C0880F991F182F116002C0A8
S11324C0182F110F969A922F283070F3949A8F9A9E
S11324D0979A3FBF812F9927CF911F91089560E06C
S11324E08BE00E9453116FE382E40E94531161E177
S11324F080E00E9453116CE889E00E94531166EA5F
S11325008EE00E9453118EE00E94361283FFFBCFAF
S113251066E28EE00E94531161EE80E00E94531146
S113252063EF89E00E94531160E08BE00E94531135
S113253066EA8EE00E9453118EE00E94361283FFF9
S1132540FBCF66E28EE00E9453110895CF93DF9390
S1132550809349058FEF80933F05C1E0D0E09091CF
S1132560490586E0989FF0011124EC0FFD1FE55703
S1132570FF4F8491682F8C2F0E9453112196C730EE
S1132580D1056CF363E087E00E94531163EE88E0A9
S11325900E9453116CE889E00E94531160E38AE0C1
S11325A00E9453116FEF8BE00E94531160E78CE09F
S11325B00E94531160E18DE00E94531166E28EE0A7
S11325C00E94531160E98FE00E9453116FE680E18D
S11325D00E94531165E481E10E94531160E282E19B
S11325E00E94531161E083E10E94531160E084E191
S11325F00E94531160E085E10E94531160E086E17E
S11326000E94531160E087E10E94531160E088E169
S11326100E94531160E089E10E94531160E08AE155
S11326200E94531160E08BE10E9453116FE382E436
S11326300E94531160E08CE10E9453110E946F12BA
S113264080E00E947E11DF91CF9108950F931F9334
S1132650182F0E94D834082F109349058FEF8093C8
S11326603F0581B3806D81BB949A969A979A6AE3E9
S113267080E00E9453116BE380E00E94531180EDCF
S113268097E00E94C731812F0E94A61210929000F9
S113269087E089B988E18AB986E0809395000FBF05
S11326A01F910F9108951F930E94D834182F48E367
S11326B053E060E070E082E00E94540E60E070E05D
S11326C084E493E00E941E2983E00E94261387B3CA
S11326D08C7F87BB8DB1837F8DB9BB9A87B38A7F8B
S11326E087BB80E00E947E116F986E9A83E491E12B
S11326F09093480580934705109240051FBF1F9192
S11327000895CF93DF9380934905C1E0D0E0909181
S1132710490586E0989FF0011124EC0FFD1FE55751
S1132720FF4F8491682F8C2F0E9453112196C7303C
S1132730D1056CF30E946F12DF91CF9108950F932E
S11327401F93CF93DF93CDB7DEB78F819927823064
S11327509105A1F0833091051CF4892B21F011C05F
S1132760059729F00EC088850E9423120AC00885A7
S113277019850E94350FF801808303C088850E9463
S11327808113DF91CF911F910F9108951F9380E0E2
S11327900E943612182F8E7F682F80E00E945311FA
S11327A01160612F80E00E9453111F91089562E32C
S11327B08AE00E945311089560E38AE00E94531155
S11327C008956BE380E00E94531180ED97E00E942E
S11327D0C73180E00E947E1108950E94E11384EFC6
S11327E091E00E94C73108958AE493E00E945D2934
S11327F00895DF92EF92FF920F931F93CF93DF938D
S1132800EC01E0904005E0918605F0918705D684BF
S1132810CE5BDF4F8881C254D040882319F48FEFF8
S113282090E0ACC081E295E00E94C129E091860568
S1132830F091870582E0868783E090E00E94C011D2
S11328400E94D7130E94AD35DC01CB01BC01CD0140
S113285027E030E040E050E00E943F39DC01CB014A
S11328600196A11DB11D80935D0390935E03A09317
S11328705F03B09360032091860530918705309300
S11328805203209351038093530390935403A093D2
S11328905503B093560310925703109258031092A5
S11328A0590310925A038FE493E00E9481338AE41F
S11328B093E00E94792982E795E00E94C1290CE007
S11328C010E0FF248091470590914805835491417D
S11328D071F40E94551590936203809361038C52A6
S11328E0914028F0F39485E08F1560F72FC00E9483
S11328F0AD35DC01CB01BC01CD012AE030E040E084
S113290050E00E943F39DC01CB010196A11DB11DAD
S113291080935D0390935E03A0935F03B093600381
S1132920C801AA27BB278093530390935403A09311
S11329305503B09356038FE493E00E948133000F54
S1132940111F8AE493E00E947929BBCF0E94DC1313
S113295082E795E00E94F229CE010E94EC118E2DAF
S113296099270E94C011E0918605F0918705D686CB
S113297081E295E00E94F22980E090E0DF91CF911E
S11329801F910F91FF90EF90DF9008950E945313D1
S113299060E070E08AE493E00E941E2984EF93E1F2
S11329A09093500380934F0308951F920F920FB694
S11329B00F9211242F933F934F935F936F937F93C1
S11329C08F939F93AF93BF93EF93FF93E09147054A
S11329D0F09148050995FF91EF91BF91AF919F91B7
S11329E08F917F916F915F914F913F912F910F90B4
S11329F00FBE0F901F9018950F931F93CF932FEF37
S1132A003FEFA0E0B0E0A617B707F0F401E210E151
S1132A10FC01C08150E847E0932F991F9927991F23
S1132A20220F331F8C2F852311F02F5F3F4F9923E3
S1132A3011F0202731275695415047FFEDCF1196CD
S1132A403196A617B70728F361E270E14FE0932FA0
S1132A50991F9927991F220F331F992311F02627B5
S1132A603727415047FFF3CFC901CF911F910F91F1
S1132A700895809363039927009729F0029731F40E
S1132A800E94D71306C00E94DC1303C084E690E0C2
S1132A90089580E090E00895CF93DF93CDB7DEB73B
S1132AA087E690E0DF91CF910895CF93DF938091F3
S1132AB06303882311F40E94D71380EC90E00E94F2
S1132AC0B01FEC0180916303882311F40E94DC138E
S1132AD0CE01DF91CF9108950F931F93CF93DF938E
S1132AE08C01EB0180916303882311F40E94D713B6
S1132AF082E795E00E94C129C130D10531F480E01C
S1132B000E941020F801808309C0C230D10531F43D
S1132B1080E00E94E21FF8019183808382E795E0C0
S1132B200E94F22980916303882311F40E94DC132C
S1132B30CE01DF91CF911F910F91089584E690E02B
S1132B4008958EE495E00E94B929109263030895D4
S1132B5087B3866087BB88B3866088BBBB9884E5EF
S1132B6095E00E94B9298DB180658DB9709A089558
S1132B7084E690E0089520E030E02617370768F4F3
S1132B80FC011FB8779BFECF779BFECF8FB181935B
S1132B902F5F3F4F26173707A0F3CB010895FC01A1
S1132BA06230710559F420813181832F99278FB9BF
S1132BB0779BFECF2FB9779BFECF0DC020E030E08E
S1132BC02617370740F480818FB9779BFECF2F5F9C
S1132BD03F4F3196F5CFCB010895CF93DF93CDB717
S1132BE0DEB78D81992787FD9095009711F00197A5
S1132BF019F087E690E003C0C09A80E090E0DF918E
S1132C00CF910895A49AAC98AC9A0895A498AC98DE
S1132C1008950F931F93CF93DF938C01EB01809161
S1132C206403882311F40E94021682E795E00E944F
S1132C30C129C130D10531F483E00E941020F8018C
S1132C40808311C0C230D10539F483E00E94E21FB1
S1132C50F8019183808307C082E795E00E94F229FE
S1132C6064E670E00BC082E795E00E94F22980914F
S1132C706403882311F40E940616BE01CB01DF9180
S1132C80CF911F910F91089584E690E00895CF931A
S1132C90C82F9927009729F0039734F40E9402164D
S1132CA006C00E94061603C084E690E004C0C093E8
S1132CB0640380E090E0CF910895CF93DF93CDB784
S1132CC0DEB787E690E0DF91CF9108950F931F93CD
S1132CD0CF93DF938C01EB0180916403882311F47B
S1132CE00E94021682E795E00E94C129C130D105F5
S1132CF031F484E00E941020F801808310C02297F0
S1132D0039F484E00E94E21FF8019183808307C0B4
S1132D1082E795E00E94F22984E690E00CC082E705
S1132D2095E00E94F22980916403882311F40E94A3
S1132D30061680E090E0DF91CF911F910F910895E6
S1132D4084E690E00895CF93C82F9927009729F03F
S1132D50039734F40E94021606C00E94061603C0AC
S1132D6084E690E004C0C093640380E090E0CF91D7
S1132D700895CF93DF93CDB7DEB787E690E0DF9178
S1132D80CF9108958AE595E00E94B9290E9406161C
S1132D9008959C016115710509F4B4C080917D0307
S1132DA0882329F480917400846080937400709364
S1132DB07603609375031092740310927303309337
S1132DC072032093710381E090E0909370038093E9
S1132DD06F0380917400806A809374008091740002
S1132DE08823E4F78091710099278C7F089709F074
S1132DF055C080917F0381608093730084E8809341
S1132E007400809174008823E4F7809171009927FD
S1132E108C7F8034910509F041C0809175039091B5
S1132E2076030197209173033091740328173907AF
S1132E3038F584EC80937400809174008823E4F75F
S1132E408091710099278C7F8035910539F5209107
S1132E50730330917403E0917103F0917203E20FF4
S1132E60F31F8091730080832F5F3F4F309374036F
S1132E702093730380917503909176030197D6CFC5
S1132E8084E880937400809174008823E4F780912F
S1132E90710099278C7F8835910571F080E695E063
S1132EA00E94F22980917D03882341F5809174006A
S1132EB08B7F8093740022C080917303909174037C
S1132EC0E0917103F0917203E80FF91F20917300F0
S1132ED020830196909374038093730380E9809315
S1132EE0740080917D03882329F4809174008B7F82
S1132EF08093740080E695E00E94F2296091730348
S1132F0070917403CB010895EF92FF920F931F9376
S1132F107C018B0180E695E00E94C12910927A031E
S1132F201092790310937C0300937B03F09278034F
S1132F30E092770340917D03442329F48091740047
S1132F4084608093740088E080937E031092700301
S1132F5010926F0380917400806A80937400809152
S1132F6074008823E4F78091710099278C7F089777
S1132F70B9F580917F038093730084E88093740093
S1132F80809174008823E4F78091710099278C7FE5
S1132F90489731F58091790390917A0320917B03CE
S1132FA030917C038217930770F5E0917703F091D9
S1132FB07803E80FF91F019690937A0380937903BD
S1132FC080818093730084E88093740080917400FE
S1132FD08823E4F78091710099278C7F889771F09A
S1132FE080E695E00E94F22980917D038823C9F44C
S1132FF0809174008B7F8093740013C08091790357
S113300090917A03CFCF84E980937400442329F408
S1133010809174008B7F8093740080E695E00E9419
S1133020F2298091790390917A031F910F91FF9077
S1133030EF90089580937D039927009731F00297CC
S113304061F480917400846003C0809174008B7F6C
S11330508093740080E090E0089584E690E0089501
S1133060CF93DF93CDB7DEB78D81992787FD9095F8
S113307083309105C1F0843091052CF4009749F018
S1133080019759F020C08430910591F00597B9F06B
S11330901AC080917400806403C0809174008F7B97
S11330A08093740013C08E81880F80937F030EC0B9
S11330B0809172009E81892B8093720007C08E815B
S11330C08093700003C087E690E002C080E090E047
S11330D0DF91CF91089510927D0380E695E00E94E0
S11330E0B92960E070E08AE693E00E941E2960E05E
S11330F070E085E693E00E941E29809174008B7F26
S11331008093740008951F920F920FB60F921124AA
S11331102F933F934F935F936F937F938F939F93DB
S1133120AF93BF93EF93FF9383E00E947902809162
S11331306F039091700320917E03892B09F46BC077
S1133140822F992780359105B9F1813591050CF0CD
S1133150D9C08830910521F08034910579F0D2C02E
S11331608091710099278C7F089709F051C0809154
S1133170720086958093730080E41BC08091710077
S113318099278C7F8034910509F042C080917303A4
S113319090917403E0917103F0917203E80FF91FA9
S11331A0209173002083019690937403809373039A
S11331B080E580937E0389C08091710099278C7F7C
S11331C08035910529F52091730330917403809122
S11331D07503909176032817390780F4E091710301
S11331E0F0917203E20FF31F8091730080832F5FCD
S11331F03F4F309374032093730367C0809174002E
S1133200806180937400809174008E7F8093740039
S113321085E693E075C0822F99278830910569F07F
S11332208930910524F4019709F463C06BC0883197
S1133230910581F0889749F165C0809171009927C3
S11332408C7F089709F05AC080917F0380937300A4
S113325088E1AFCF8091710099278C7F489709F05E
S11332604DC08091790390917A03E0917703F091B6
S11332707803E80FF91F019690937A0380937903FA
S113328080818093730088E294CF809171009927A4
S11332908C7F889799F52091790330917A038091F6
S11332A07B0390917C0328173907A8F4E0917703F6
S11332B0F0917803E20FF31F2F5F3F4F30937A03AF
S11332C020937903808180937300809174008068D7
S11332D08093740017C0809174008061809374009F
S11332E08091740080688093740081E080937E03F1
S11332F009C0809174008E7F809374008AE693E005
S11333000E944429FF91EF91BF91AF919F918F91BA
S11333107F916F915F914F913F912F910F900FBECD
S11333200F901F9018950F931F938B0121E020930A
S11333308503909387038093860380918E039091F5
S11333408F0390938D0380938C0370938B0360930E
S11333508A031092890310928803E39A80E893E029
S11333600E94792980918E0390918F03800F911F81
S113337090938F0380938E03C8011F910F9108953A
S11333800F931F938B01109285039093870380936F
S1133390860380918E0390918F0390938D03809385
S11333A08C0370938B0360938A03109289031092A9
S11333B08803E39A80E893E00E94792980918E0340
S11333C090918F03800F911F90938F0380938E03AE
S11333D0C8011F910F910895CF93DF93CDB7DEB746
S11333E08D81813019F087E690E008C08E819F813D
S11333F090938F0380938E0380E090E0DF91CF91D0
S1133400089584E690E0089560E070E080E893E039
S11334100E941E2986E695E00E94B92908951F920C
S11334200F920FB60F9211242F933F934F935F93F4
S11334306F937F938F939F93AF93BF93EF93FF9378
S113344080918503209188033091890340918A03F8
S113345050918B038823F1F424173507B0F580913C
S11334608C0390918D03820F931F9FBB8EBBE091C1
S11334708603F0918703E20FF31F2F5F3F4F3093D2
S113348089032093880380818DBB8CE08CBB8EE004
S11334908CBB20C024173507C0F480918C03909115
S11334A08D03820F931F9FBB8EBBE09AE09186032E
S11334B0F0918703E20FF31F8DB380832F5F3F4F9B
S11334C0309389032093880305C0E39880E893E050
S11334D00E945D29FF91EF91BF91AF919F918F91D0
S11334E07F916F915F914F913F912F910F900FBEFC
S11334F00F901F90189520E030E0FC01019000200F
S1133500E9F73197E81BF90B369760F0FC018381EA
S1133510873441F48481873429F48581813411F41A
S113352021E030E0C9010895CF93DF93DC010D90D1
S11335300020E9F79D0121503040DA011D921C92D0
S1133540EC0182179307B8F488818C3281F4DE0190
S11335501D92FA0180819181FC01E80FF91FE60FA9
S1133560F71FB183A0830196DA018D939C93219672
S1133570C217D30748F3DF91CF910895EF92FF92DA
S11335800F931F93CF93DF93CDB7DEB723970FB677
S1133590F894DEBF0FBECDBF20E030E040E050E045
S11335A079018A01DC0183E0FE01319611928A954A
S11335B0E9F78C91882331F429813A814B81BA014E
S11335C0A9011EC02AE08202C0011124FD0151811B
S11335D0580F5051598382818202C00111244381C2
S11335E0480F40514A8384818202900111248581CD
S11335F0820F80518B83E52EF42E082FB801A7018A
S1133600CB01BA0123960FB6F894DEBF0FBECDBF2F
S1133610DF91CF911F910F91FF90EF9008952F921A
S11336203F924F925F926F927F928F929F92AF924E
S1133630BF92CF92DF92EF92FF920F931F93CF939B
S1133640DF93CDB7DEB725970FB6F894DEBF0FBE74
S1133650CDBF2224722C822C922CFC018B019E0162
S11336602F5F3F4F85E0D9011D928A95E9F780814C
S11336708823B1F0CE0103969F938F933F932F93AA
S113368081E791E09F938F93FF93EF930E941C3601
S1133690EDB7FEB738960FB6F894FEBF0FBEEDBF78
S11336A0D8016C91662311F06D8302C08FE38D8382
S11336B08D8129803A804B805C80222D332D442DCE
S11336C0552D682F772D882D992D25960FB6F894B2
S11336D0DEBF0FBECDBFDF91CF911F910F91FF9041
S11336E0EF90DF90CF90BF90AF909F908F907F909E
S11336F06F905F904F903F902F9008952F923F923C
S11337004F925F926F927F928F929F92AF92BF92ED
S1133710CF92DF92EF92FF920F931F93CF93DF9399
S1133720CDB7DEB728970FB6F894DEBF0FBECDBF76
S1133730DC018B019E012F5F3F4F88E0F90111925C
S11337408A95E9F78C918823F9F0CE0105969F9329
S11337508F93CE0103969F938F933F932F93452B83
S113376019F087E791E002C081E891E09F938F937D
S1133770BF93AF930E941C368DB79EB70A960FB6BF
S1133780F8949EBF0FBE8DBFF8016081662311F0CF
S1133790688702C08FE38887E88529803A804B8058
S11337A05C806D807E808F80222D332D442D552D9D
S11337B0662D772D882D9E2F28960FB6F894DEBFA0
S11337C00FBECDBFDF91CF911F910F91FF90EF906E
S11337D0DF90CF90BF90AF909F908F907F906F902D
S11337E05F904F903F902F9008950F931F93CF9326
S11337F0DF93CDB7DEB7AB970FB6F894DEBF0FBE3D
S1133800CDBF8B0128E2FB0111922A95E9F71BA693
S11338101AA619A6AE01475D5F4FBE016F5F7F4FC9
S11338200E94941A89A59AA50E9719F080E090E059
S11338306BC089819A810E94BE1AF80160837183EA
S1133840828341E050E06D817E818B819C810E9466
S11338507E1BF801238334834583568367837087F3
S11338608187928740E050E069857A858F819885C9
S11338700E947E1BF8012387348745875687678714
S1133880708B818B928B8B859C850E940E35F80101
S1133890838B8D859E850E940E35F801848BBE0135
S11338A0655D7F4F8F8598890E940F1BF801258BDA
S11338B0368B478B508F618F6B897C8989899A8974
S11338C00E940F1BF801228F338F448F558F668F10
S11338D06F89788D8D899E890E940F1BF801278F2F
S11338E030A341A352A363A3898D9A8D0E940E3500
S11338F0F80195A384A38B8D9C8D0E940E35F8014D
S113390097A386A381E090E0AB960FB6F894DEBF50
S11339100FBECDBFDF91CF911F910F9108950F93EB
S11339201F938C01FC01828199279F938F9381813E
S113393099279F938F93808199279F938F938BE8E7
S113394091E09F938F930E94D104F8018285992777
S113395087FD90959F938F93878190859F938F93F5
S1133960858196819F938F93838194819F938F9375
S113397081EA91E09F938F930E94D104F801828998
S1133980992787FD90959F938F93878590899F931F
S11339908F93858596859F938F93838594859F9335
S11339A08F938EEB91E09F938F930E94D104F80143
S11339B0838999279F938F938BED91E09F938F93A6
S11339C00E94D1048DB79EB780960FB6F8949EBF1F
S11339D00FBE8DBFF801848999279F938F9385EE3D
S11339E091E09F938F930E94D104F8018789908D71
S11339F09F938F93858996899F938F938FEE91E000
S1133A009F938F930E94D104F801868D992787FD97
S1133A1090959F938F93848D958D9F938F93828D93
S1133A20938D9F938F938CEF91E09F938F930E943C
S1133A30D104F80183A1992787FD90959F938F93D3
S1133A4081A192A19F938F93878D90A19F938F9330
S1133A508CE092E09F938F930E94D104F80184A19B
S1133A6095A19F938F938CE192E09F938F930E94F3
S1133A70D104F80186A197A19F938F9386E292E0E7
S1133A809F938F930E94D1048DB79EB782960FB6F1
S1133A90F8949EBF0FBE8DBF1F910F910895CF93D1
S1133AA0DF93CDB7DEB78D81813021F018F087E642
S1133AB090E004C08093910380E090E0DF91CF9187
S1133AC00895DC0120E030E0AB0141505040241760
S1133AD0350798F4FC0180919B008823E4F78091DA
S1133AE09C008D3039F08A3011F4108206C0819325
S1133AF02F5F3F4F2417350770F36150704026172E
S1133B00370719F4A20FB31F1C92C9010895FC01D1
S1133B1090E080919B008823E4F780919C00803A98
S1133B2011F491E0F6CF823A99F7913089F780EA5F
S1133B30808382EA818380919B008823E4F78091CB
S1133B409C00282F3327322F2227228380919B0029
S1133B508823E4F780919C009927282B392B238311
S1133B60C90108966817790778F43F932F9381E386
S1133B7092E09F938F930E94D10480E090E00F9095
S1133B800F900F900F90089544E050E0240F351FDC
S1133B904217530770F4E40FF51F80919B008823AC
S1133BA0E4F780919C0081934F5F5F4F4217530766
S1133BB0A0F3CA010895CF93DF93CDB7DEB7219761
S1133BC00FB6F894DEBF0FBECDBF88E490E09F939C
S1133BD08F9383E08F930E94301861E070E0CE01F0
S1133BE0860F971F0E94C91689818F77898361E0A8
S1133BF070E0CE01860F971F0E9484170F900F90DC
S1133C000F90198261E070E0CE01860F971F0E9429
S1133C10C91689818823ACF321960FB6F894DEBFC8
S1133C200FBECDBFDF91CF910895CF93DF93CDB772
S1133C30DEB721970FB6F894DEBF0FBECDBF82E387
S1133C4090E09F938F9385E08F930E94301888E4CF
S1133C5090E09F938F9383E08F930E94301861E0EC
S1133C6070E0CE01860F971F0E94C9168981806873
S1133C70898361E070E0CE01860F971F0E9484174C
S1133C808DB79EB706960FB6F8949EBF0FBE8DBF34
S1133C90198261E070E0CE01860F971F0E94C91659
S1133CA089818823ACF721960FB6F894DEBF0FBE46
S1133CB0CDBFDF91CF9108951F93CF93DF93CDB7FD
S1133CC0DEB721970FB6F894DEBF0FBECDBF182F15
S1133CD080919A008F7680939A0080919A008061F7
S1133CE080939A0089E490E09F938F9383E08F936D
S1133CF00E94301861E070E0CE01860F971F0E9489
S1133D00C9168981812B898361E070E0CE01860F19
S1133D10971F0E9484170F900F900F90198261E0F3
S1133D2070E0CE01860F971F0E94C91689818123F6
S1133D308117A1F721960FB6F894DEBF0FBECDBF51
S1133D40DF91CF911F9108951F93CF93DF93CDB748
S1133D50DEB721970FB6F894DEBF0FBECDBF182F84
S1133D6089E490E09F938F9383E08F930E943018AF
S1133D7061E070E0CE01860F971F0E94C916912F53
S1133D80909589818923898361E070E0CE01860F53
S1133D90971F0E9484170F900F900F90198261E073
S1133DA070E0CE01860F971F0E94C9168981812376
S1133DB0A9F780919A008F7E80939A0021960FB67E
S1133DC0F894DEBF0FBECDBFDF91CF911F91089550
S1133DD00F931F93CF93DF938C01EB01809190039A
S1133DE0882329F40E94151E83E00E945C1E82E051
S1133DF00E945C1E8091910399270097B1F001976E
S1133E00C1F4A897B1F460E670E082E993E00E94FF
S1133E10611D82E993E00E947B1A892BA1F3B8010A
S1133E2082E993E00E94F51B04C0BE01C8010E9410
S1133E30611D80919003882329F483E00E94A41ECD
S1133E400E94DB1D81E090E0DF91CF911F910F91E3
S1133E500895EF92FF920F931F93CF93DF93CDB703
S1133E60DEB7C354D0400FB6F894DEBF0FBECDBF4B
S1133E707C018B0182E00E94A41E81E00E945C1EF2
S1133E8082E08F930E94EF08A801B701CE01039648
S1133E900E943B35FE01ED5BFF4F0083CE0101968E
S1133EA00E94AF080F9080919B0086FFFCCF809109
S1133EB09B00806480939B0081E00E94A41E82E0AA
S1133EC00E945C1E80E090E0CD5BDF4F0FB6F8945B
S1133ED0DEBF0FBECDBFDF91CF911F910F91FF9039
S1133EE0EF900895882341F48093900383E00E9427
S1133EF0A41E0E94DB1D09C0823051F480939003FC
S1133F0083E00E94A41E0E94151E80E090E00895A4
S1133F1084E690E008958CE695E00E94B929109219
S1133F20900310929103089560E070E082EF93E0B3
S1133F300E941E2982E795E00E94B9291092F70396
S1133F40379881E08093F80386B1866086B9089536
S1133F50379887B98093F80386B1886986B908953C
S1133F601F93CF93DF93182F8091F703882319F4BD
S1133F7086B1886986B98091F803181719F0812FE2
S1133F800E94A81F3398349A86B1806C86B93699FA
S1133F90FECF84B1C82FDD2785B19927982F8827B4
S1133FA0C82BD92B8091F803181711F00E94A81F71
S1133FB08091F703882309F43798CE01DF91CF91DC
S1133FC01F9108950F931F93CF93C82F8091F703E8
S1133FD0882319F486B1886986B98091F803C817D3
S1133FE019F08C2F0E94A81F349A86B1886C86B968
S1133FF082EF93E00E9479290091F9031091FA036A
S11340008091F803C81711F00E94A81F8091F7034C
S1134010882309F43798C801CF911F910F9108950F
S11340200E94E21F969587959695879599270895FE
S11340300F931F93CF93DF938C01EB0161307105D4
S113404039F48091F8030E941020F801808309C09C
S11340508091F8030E94E21FF80191838083C2E0FB
S1134060D0E0CE01DF91CF911F910F91089584E6A6
S113407090E00895282F8091F703422F5527821747
S113408071F02093F7034115510521F04230510599
S113409019F005C0379803C086B1886986B9CA018A
S11340A008950F931F93CF93DF93CDB7DEB78F811E
S11340B0082F112707FD10950115110519F087E642
S11340C090E007C0888599858093F8030E94A81F13
S11340D0C801DF91CF911F910F9108951F920F9204
S11340E00FB60F9211242F933F934F935F936F93C7
S11340F07F938F939F93AF93BF93EF93FF9384B179
S1134100282F332785B19927982F8827282B392BD7
S11341103093FA032093F90382EF93E00E94442939
S1134120FF91EF91BF91AF919F918F917F916F918B
S11341305F914F913F912F910F900FBE0F901F9061
S1134140189588E795E00E94B9290E94D834D39A3B
S1134150DB9A95988D9A92988A98939A8B9A8FBFA6
S113416083E0809303041092FB031092FC031092EB
S1134170FD031092FE0381E08093FF0380E098E04A
S113418090930104809300041092020480E29EE460
S11341900E94C73108951F9310E00E94D834982FCD
S11341A082B3877D82BB959A8299106882BB959A67
S11341B08299106482BB959A8299106282BB959A07
S11341C08299106182BB959A8299186082BB959AF4
S11341D08299146082BB959A8299126082BB959AE7
S11341E0829911609FBF812F99271F9108950F9382
S11341F01F93082F10E00E94D834982F82B3877D34
S113420082BB07FD939A959A82BB06FD939A959A71
S113421082BB05FD939A959A82BB04FD939A959A65
S113422082BB03FD939A959A82BB02FD939A959A59
S113423082BB01FD939A959A82BB00FD939A959A4D
S11342409FBF812F99271F910F910895FF920F937C
S11342501F93CF93DF93CDB7DEB724970FB6F894AF
S1134260DEBF0FBECDBF813011F483E801C086E804
S113427089838E010F5F1F4FCB01880F892F881F01
S1134280990B9195F8018183862F880F8B831C826B
S11342900E94D8349598DB988FBF83E0F82EF801FC
S11342A081918F010E94F720FA94F7FEF8CFDB9AF0
S11342B081E090E024960FB6F894DEBF0FBECDBF28
S11342C0DF91CF911F910F91FF9008951F930E944A
S11342D0D8349598DB988FBF0E94D834182F87ED77
S11342E00E94F7200E94CB201FBFDB9A992787FDED
S11342F09095809590958827990F881F99271F91ED
S113430008951F93CF93DF93CDB7DEB78E8199279E
S113431087FD909582309105B1F0833091051CF4AE
S1134320019721F028C0059734F528C08F8198851E
S1134330A985BA858093FB039093FC03A093FD03A6
S1134340B093FE031BC0809102048823B9F00E943D
S11343506621182F8823D9F7609100047091010415
S11343608091FF030E942621109302040E9466217B
S11343708823E1F703C087E690E002C080E090E084
S1134380DF91CF911F9108951F93CF93982F10E041
S113439080910304891719F480E090E031C0909370
S11343A00304892F99278330910519F00497C9F0E4
S11343B024C080910204882309F10E946621C82F39
S11343C08823D9F760910004709101048091FF0360
S11343D00E942621C09302040E9466218823E1F7EB
S11343E00DC081E08093FF0380E098E09093010486
S11343F0809300041093020401C018E6812F9927CA
S1134400CF911F9108954F925F926F927F928F92F6
S11344109F92AF92BF92CF92DF92EF92FF920F934F
S11344201F93CF93DF93CDB7DEB728970FB6F894D9
S1134430DEBF0FBECDBF2B013C01E090FB03F0902B
S1134440FC030091FD031091FE03C801B70128E0AD
S113445031E040E050E00E941D396901C801B70114
S113446028E031E040E050E00E941D39DC01CB013E
S11344704C01809102048823A1F1A0900004B09023
S11344800104AC14BD0468F1760100271127C401AE
S1134490AA27BB27840D951DA61DB71DBC01CD0100
S11344A028E031E040E050E00E941D39E20EF31EA6
S11344B0041F151FC501AA27BB27E816F9060A071A
S11344C01B0778F00E946621182F8823D9F7609182
S11344D00004709101048091FF030E94262110932F
S11344E002040E946621382F8823D9F788EE898335
S11344F0C601880F892F881F990B91958A832C2DCB
S1134500220F892D9927282B2B838C823D833E8370
S11345103F8338870E94D8349598DB988FBFEE2468
S1134520FF248701FE01EE0DFF1D81810E94F7200B
S11345300894E11CF11C011D111D88E0E816F1042A
S11345400105110578F3EFEFCE2EDE2EEE24FF24C5
S11345508701E414F5040605170508F50E94CB202D
S1134560682F30E841E250E127E09D2D991F9927FB
S1134570991FCC0CDD1C862F832319F00894C11CD1
S1134580D11C992311F0C426D5263695215027FF36
S1134590ECCF0894E11CF11C011D111DDACF41E29E
S11345A050E12FE09D2D991F9927991FCC0CDD1CFC
S11345B0992311F0C426D526215027FFF3CFDB9A87
S11345C0C60128960FB6F894DEBF0FBECDBFDF91AB
S11345D0CF911F910F91FF90EF90DF90CF90BF90FC
S11345E0AF909F908F907F906F905F904F900895C1
S11345F0FF920F931F93CF93DF93CDB7DEB724972A
S11346000FB6F894DEBF0FBECDBF813011F483E541
S113461001C085E589838E010F5F1F4FCB01880F91
S1134620892F881F990B9195F8018183862F880F14
S11346308B831C820E94D8349598DB988FBFB3E09B
S1134640FB2EF80181918F010E94F720FA94F7FE66
S1134650F8CFDB9A81E090E024960FB6F894DEBFA1
S11346600FBECDBFDF91CF911F910F91FF900895A1
S1134670AF92BF92CF92DF92EF92FF920F931F936C
S1134680CF93DF93CDB7DEB724970FB6F894DEBF90
S11346900FBECDBF5A016901813011F484E801C015
S11346A087E889838E010F5F1F4FF8011182872FDE
S11346B099278B836C830E94D8349598DB988FBF9D
S11346C034E0E32EF12CEC0EFD1EF80181918F01F4
S11346D00E94F720E016F106C0F7C114D10451F08E
S11346E075018601F70181917F010E94F720015035
S11346F01040C1F7DB9A81E090E024960FB6F8945D
S1134700DEBF0FBECDBFDF91CF911F910F91FF9000
S1134710EF90DF90CF90BF90AF9008953F924F926B
S11347205F926F927F928F929F92AF92BF92CF923D
S1134730DF92EF92FF920F931F93CF93DF93CDB746
S1134740DEB724970FB6F894DEBF0FBECDBF2C01A1
S11347505B0166247724332480910204882379F052
S11347600E946621182F8823D9F760910004709164
S113477001048091FF030E942621109302040E94E9
S113478066218823E1F7A114B10409F492C0E090F2
S1134790FB03F090FC030091FD031091FE03C8019C
S11347A0B70128E031E040E050E00E941D39690182
S11347B0C801B70128E031E040E050E00E941D3913
S11347C0DC01CB018C01C501800F911F8950914000
S11347D038F0E8E08E2EE1E09E2E801A910A01C0A6
S11347E0450188E0881681E0980640F4B60181E02E
S11347F00E94F8220E9466218823E1F7C201860DF7
S1134800971D9401AC01B80181E00E94382380E631
S113481089838E010F5F1F4FC601880F892F881F60
S1134820990B9195F80181838C2D880F8B831C82C1
S11348300E94D8349598DB988FBF63E0E62EF80188
S113484081918F010E94F720EA94E7FEF8CFDB9A6A
S11348500E94D8349598DB988FBF87ED0E94F7208B
S11348600E94CB20DB9A88239CF399278074907054
S1134870882319F051E0352E1CC0680C791C940172
S1134880442755278091FB039091FC03A091FD03DD
S1134890B091FE03820F931FA41FB51F8093FB03E7
S11348A09093FC03A093FD03B093FE03A818B908EA
S11348B06ACF9501442755278091FB039091FC030F
S11348C0A091FD03B091FE03820F931FA41FB51F97
S11348D08093FB039093FC03A093FD03B093FE032A
S11348E0832D992724960FB6F894DEBF0FBECDBF53
S11348F0DF91CF911F910F91FF90EF90DF90CF90B8
S1134900BF90AF909F908F907F906F905F904F90EB
S11349103F900895FF920F931F93CF93DF93CDB7EA
S1134920DEB724970FB6F894DEBF0FBECDBF9C014F
S113493081E889838E010F5F1F4FC901880F892F7A
S1134940881F990B9195F8018183822F880F8B839F
S11349501C820E94D8349598DB988FBFF3E0FF2E19
S1134960F80181918F010E94F720FA94F7FEF8CFA5
S1134970DB9A81E090E024960FB6F894DEBF0FBE78
S1134980CDBFDF91CF911F910F91FF9008956F924A
S11349907F928F929F92AF92BF92CF92DF92EF92CB
S11349A0FF920F931F93CF93DF933C016B018824F5
S11349B09924E090FB03F090FC030091FD03109117
S11349C0FE03C801B70128E031E040E050E00E9456
S11349D01D39E901C801B70128E031E040E050E0A9
S11349E00E941D39DC01CB015C010E9466218823F1
S11349F0E1F7C114D10409F499C0C6018A0D9B1DC5
S1134A008950914028F008E011E00A191B0901C0FF
S1134A10860180910304843009F049C08091000428
S1134A2090910104C817D907A1F180910204882349
S1134A3079F00E946621E82E8823D9F7609100045A
S1134A40709101048091FF030E942621E0920204E8
S1134A508091FF03813011F482E001C081E08093F2
S1134A60FF03D0930104C093000481E008301807C9
S1134A7048F40E9466218823E1F7BE018091FF0378
S1134A800E94F8220E9466218823E1F7CE010E9449
S1134A908A24C301880D991D9801AC01B501809148
S1134AA0FF030E94382381E08093020420C0BE01EA
S1134AB081E00E94F8220E9466218823E1F7CE015A
S1134AC00E948A240E9466218823E1F7C301880D8D
S1134AD0991D9801AC01B50181E00E943823BE0103
S1134AE081E00E9426210E9466218823E1F7800E3E
S1134AF0911E9801442755278091FB039091FC0354
S1134B00A091FD03B091FE03820F931FA41FB51F54
S1134B108093FB039093FC03A093FD03B093FE03E7
S1134B20C01AD10A2196AA24BB2463CFC601DF91FF
S1134B30CF911F910F91FF90EF90DF90CF90BF9096
S1134B40AF909F908F907F906F9008958F929F92D7
S1134B50AF92BF92CF92DF92EF92FF920F931F9387
S1134B60CF93DF93CDB7DEB728970FB6F894DEBFA7
S1134B700FBECDBF4C015B01E090FB03F090FC0342
S1134B800091FD031091FE03C801B70128E031E054
S1134B9040E050E00E941D396901C801B70128E0D6
S1134BA031E040E050E00E941D39DC01CB018C0172
S1134BB080910204882319F12091000430910104AA
S1134BC02C153D05E0F0C8018A0D9B1D68E071E0DD
S1134BD00E940939CB018C0D9D1D8217930778F033
S1134BE00E946621F82E8823D9F760910004709101
S1134BF001048091FF030E942621F09202040E9486
S1134C006621382F8823D9F788EE8983C601880F57
S1134C10892F881F990B91958A832C2D220F812F20
S1134C209927282B2B830C833D833E833F8338872E
S1134C300E94D8349598DB988FBF00E010E0FE0105
S1134C40E00FF11F81810E94F7200F5F1F4F083092
S1134C501105A8F3A114B10451F0740185010E9457
S1134C60CB20F70181937F0101501040C1F7DB9AFB
S1134C70C50128960FB6F894DEBF0FBECDBFDF91F5
S1134C80CF911F910F91FF90EF90DF90CF90BF9045
S1134C90AF909F908F900895AC0120E0611571054D
S1134CA089F0E22FFF27DA01AE0FBF1FEC5FFB4F45
S1134CB080818C932F5F263028F4822F99278617C2
S1134CC0970778F3822F9927089584E690E0089552
S1134CD084E690E00895CF93DF93CDB7DEB787E6FF
S1134CE090E0DF91CF9108951F93D49ADC9886E0E9
S1134CF090E00E94C731DC9AD49889E090E00E9449
S1134D00C73119B3107187E390E00E94C731812F36
S1134D1099271F910895CF92DF92FF920F931F93CB
S1134D20CF93DF93CDB7DEB721970FB6F894DEBFEC
S1134D300FBECDBF8EE795E00E94B929D498DC9AC6
S1134D400E94D834F82ED498DC9AD49ADC9880EE59
S1134D5091E00E94C731DC9AD49886E490E00E94E6
S1134D60C73119B310718AE991E00E94C731112348
S1134D7009F04AC080EE91E00E94C73113E307E0D6
S1134D8010FF0BC0D49ADC9886E090E00E94C731F3
S1134D90DC9AD49880E490E00AC0D49ADC988CE33E
S1134DA090E00E94C731DC9AD4988AE090E00E9497
S1134DB0C7311695015007FFE3CF17E00E94742610
S1134DC0115017FFFBCF90E0C92EDD2424E034E01E
S1134DD0C20ED31E10E007E0169599830E94742634
S1134DE0998181111068015007FFF6CFF6011083F5
S1134DF09F5F963048F317E00E947426115017FF06
S1134E00FBCFD498DC98FFBED498DC9821960FB6DB
S1134E10F894DEBF0FBECDBFDF91CF911F910F91EC
S1134E20FF90DF90CF90089586E695E00E94C12917
S1134E301F921F9281E08F930E94EC1962E070E050
S1134E408DE592E00E94931986E695E00E94F2298E
S1134E500F900F900F90089580915D0290915E02E3
S1134E600895CF93DF93CDB7DEB722970FB6F894AA
S1134E70DEBF0FBECDBF9A83898386E695E00E948C
S1134E80C1291F921F9281E08F930E94EC1962E066
S1134E9070E0CE0101960E94C01986E695E00E945A
S1134EA0F22989819A8190935E0280935D020F902A
S1134EB00F900F9022960FB6F894DEBF0FBECDBFB1
S1134EC0DF91CF910895FC01CB01F0930B04E093A3
S1134ED00A04069791838083F383E283F583E48352
S1134EE00895FC01AC014A5F5F4F20E030E080810F
S1134EF091812817390750F46FEEDA016D932F5F13
S1134F003F4F8081918128173907C0F30895CF93CB
S1134F10DF93AC0120910A0430910B042115310573
S1134F2011F4C90178C0F901C0E0D0E080FF02C0EB
S1134F304F5F5F4F608171816417750740F0209760
S1134F4029F0888199816817790708F4EF010480B2
S1134F50F581E02DE217F30769F7209711F4CE01EC
S1134F605AC0CA010696288139818217930798F19D
S1134F70AA81BB81AC17BD0729F410920B041092CF
S1134F800A0409C08C819D81FD0195838483EC8191
S1134F90FD81B383A28380910A0490910B04C81706
S1134FA0D90731F48C819D8190930B0480930A047A
S1134FB0BE016A5F7F4F40E050E04217530750F54F
S1134FC02FEEFB0121934F5F5F4F88819981481732
S1134FD05907C0F31FC0FE01E20FF31FE41BF50BDA
S1134FE0241B350B2650304039832883518340835A
S1134FF0BF016A5F7F4F20E030E02417350750F48B
S11350004FEEDB014D932F5F3F4F80819181281735
S11350103907C0F3CB01DF91CF910895CF93DF938C
S1135020AC01DB01EB018C819D81FA0195838483C2
S1135030EC81FD8153834283EA01888199812D911A
S11350403C91820F931F069699838883DF91CF91B9
S11350500895CF93DF93EC01269780910A049091F1
S11350600B04009749F4D0930B04C0930A04DD8326
S1135070CC83DB83CA8324C0DC01AC17BD0730F4C6
S1135080FD01A481B581A817B907B9F7BD83AC8325
S1135090FD01828193819B838A8382819381FC01B8
S11350A0D583C483FD01D383C28380910A04909184
S11350B00B04C817D90720F4D0930B04C0930A0437
S11350C028813981DE01A20FB31FCD010696EC8140
S11350D0FD81E817F90791F4848195819D838C8380
S11350E00480F581E02DD383C283FD0186819781FD
S11350F0280F391F2A5F3F4F39832883AA81BB8138
S11351002D913C911197CE01821B930B0697A81702
S1135110B90789F48C819D81FD0195838483EC8199
S1135120FD81B383A28388819981280F391F2A5F67
S11351303F4F2D933C93DF91CF910895FC0120E0E4
S113514030E0448155812417350758F40280F381F7
S1135150E02D81918F3E29F42F5F3F4F24173507AF
S1135160C0F3C9010895CF92DF92EF92FF920F939B
S11351701F93CF93DF93C82E80E8E82E80E1F82EAA
S113518088E895E0E81AF90ADD2400E010E0C0910F
S11351900A04D0910B04209769F1CC20E1F08881B6
S11351A099819F938F932696DF93CF932697DF93CE
S11351B0CF938D2D99279F938F9383E791E09F93AE
S11351C08F930E9468068DB79EB70A960FB6F8941F
S11351D09EBF0FBE8DBFD39488819981080F191F7C
S11351E00C80DD81C02D80910A0490910B04C817B6
S11351F0D90799F6FF92EF921F930F93C701801B73
S1135200910B9F938F938D2D99279F938F9380E478
S113521091E09F938F930E9468068DB79EB70A967C
S11352200FB6F8949EBF0FBE8DBFDF91CF911F9133
S11352300F91FF90EF90DF90CF900895FC01608371
S113524012821182148213820895EF92FF920F93B7
S11352501F93CF938C017B010E94D834C82FF8018F
S113526080818F5F8193B701CF010E943E34009704
S113527021F06C2F0E943F2C01C0CFBFCF911F9112
S11352800F91FF90EF9008950F931F93CF938C018C
S11352900E94D834C82FF80180818F5F8193CF0199
S11352A00E943034009721F06C2F0E943F2C01C0E3
S11352B0CFBFCF911F910F9108950F931F93CF9359
S11352C08C010E94D834C82FF80180818F5F8193AC
S11352D0CF010E9430349C01892B31F08C2F992707
S11352E0BC01C9010E949C2ACFBFCF911F910F918D
S11352F00895CF93DF93EC010E94D834282F88813E
S11353008150888387FF1DC0A0918605B0918705D1
S113531089819A81009741F4BA83A983BC83AB83C2
S1135320FD01918B808B09C0EB81FC81B18BA08B3B
S1135330BC83AB83FD01118A108A822F0E94BA2C90
S113534001C02FBFDF91CF910895CF93DF93EC017C
S11353500E94D8349881191634F4915098838FBFE1
S113536080E090E003C08FBF81E090E0DF91CF91B7
S11353700895FC0111821082138212821582148214
S113538008950F931F93CF93DF93EC01009186054B
S1135390109187050E94D834282F88819981892B00
S11353A0C9F08A819B81009741F41B830A831D8382
S11353B00C83F801918B808B09C0EC81FD81118BEA
S11353C0008B1D830C83F801118A108A822F0E949E
S11353D0BA2C03C0198308832FBFDF91CF911F918B
S11353E00F910895FF920F931F93CF93DF93EC01D6
S11353F000918605109187050E94D834F82E888183
S113540099818017910779F4CE0102960E94303475
S1135410009739F099838883FFBE6F2D0E943F2C3B
S113542003C099838883FFBEDF91CF911F910F91B1
S1135430FF9008950F931F93CF93DF93EC01009196
S11354408605109187050E94D834282F8881998178
S1135450009721F02FBF81E090E003C019830883F7
S11354602FBFDF91CF911F910F9108950E94D834DF
S11354701092AC041092AB048FBF08950E94D834EC
S1135480282F81E090E09093AC048093AB042FBF6D
S113549008958091AB049091AC040895F89480E849
S11354A090E188589540BC0188E895E00E94632704
S11354B022E134E091E0F90185E011821082148642
S11354C095871686118A108A138A128A81507596D6
S11354D087FFF3CF309387052093860590931E04AE
S11354E084E08093200481E090E09093AC04809366
S11354F0AB0420E830E1309315042093140480E8D1
S113550090E09093170480931604F9018DB79EB729
S11355102817390728F42FEE2193E817F907E0F349
S1135520E2E9F4E084E01182108213821282815055
S1135530349687FFF8CF0895CF93DF93EC018C85E1
S1135540833081F58E85A82FBB27AA0FBB1FAA0F16
S1135550BB1FAE56BB4F2D913C91119721153105C0
S113556081F4CD93DC938E85E82FFF27EE0FFF1F88
S1135570EE0FFF1FEE56FB4FD383C283398B288B6C
S11355800BC0FD0182819381FC01D18BC08BFD0195
S1135590D383C283198A188A1B8A1A8A82E08C8769
S11355A088858D87DF91CF91089510920F04109212
S11355B00C048F938FB7F8948F93FF93EF93DF933B
S11355C0CF93BF93AF939F937F936F935F934F93C7
S11355D03F932F931F930F93FF92EF92DF92CF92FB
S11355E0BF92AF929F928F927F926F925F924F92EF
S11355F03F922F928DB79EB7E0918605F091870573
S1135600918380838485813081F582E08487C09191
S11356108605D09187058E85A82FBB27AA0FBB1FAF
S1135620AA0FBB1FAE56BB4F2D913C91119721156C
S1135630310581F4CD93DC938E85E82FFF27EE0F9F
S1135640FF1FEE0FFF1FEE56FB4FD383C283398B30
S1135650288B0BC0FD0182819381FC01D18BC08B0F
S1135660FD01D383C283198A188A1092AA048091F7
S1135670AA049927880F991F880F991F8E569B4F4C
S11356800E943034FC019093870580938605892B12
S113569039F48091AA048F5F8093AA04853038F38B
S11356A081E08487E0918605F0918705808191816E
S11356B09EBF8DBF2F903F904F905F906F907F90D3
S11356C08F909F90AF90BF90CF90DF90EF90FF901E
S11356D00F911F912F913F914F915F916F917F9106
S11356E09F91AF91BF91CF91DF91EF91FF918F91F6
S11356F08FBF8F91789481E080930F040895FF9277
S11357000F931F93CF93DF938C01F62EC091A604C1
S1135710D091A704FE01209711F198014427552741
S113572080859185A285B38582179307A407B50761
S113573048F0821B930BA40BB50B80879187A2873B
S1135740B3870DC080859185081B190B10861186BF
S1135750128613860088F189E02D3097F1F6D093F4
S11357601104C0931004209709F451C088859985C9
S1135770AA85BB850097A105B10509F048C086EA52
S113578094E00E943034FC0190939104809390043F
S113579082E08487C0919004D09191048E85A82FD3
S11357A0BB27AA0FBB1FAA0FBB1FAE56BB4F2D9121
S11357B03C9111972115310581F4CD93DC938E85AD
S11357C0E82FFF27EE0FFF1FEE0FFF1FEE56FB4FD4
S11357D0D383C283398B288B0BC0FD0182819381D3
S11357E0FC01D18BC08BFD01D383C283198A188A33
S11357F0E091A604F091A704F0931104E09310043F
S1135800309729F080859185A285B385B3CFFFBEFB
S11358100E94D52ADF91CF911F910F91FF90089597
S1135820DF92EF92FF920F931F937B018C010E94F2
S1135830D834D82EE0918605F091870584E08487DA
S1135840E0918605F091870580910C04E80EF11C27
S1135850011D111DE086F18602871387BF0186EAC8
S113586094E00E947B3480910C046D2D99270E9452
S11358707F2B1F910F91FF90EF90DF900895CF93AE
S1135880DF93EC018C85833071F58E85A82FBB27BF
S1135890AA0FBB1FAA0FBB1FAE56BB4F2D913C9145
S11358A011972115310581F4CD93DC938E85E82F72
S11358B0FF27EE0FFF1FEE0FFF1FEE56FB4FD383A4
S11358C0C283398B288B0BC0FD0182819381FC013B
S11358D0D18BC08BFD01D383C283198A188A82E0DD
S11358E08C8788858D8780910C0499270E947F2B53
S11358F0DF91CF910895CF93DF93EC010E94D834C8
S1135900682F8C85833071F58E85A82FBB27AA0F4D
S1135910BB1FAA0FBB1FAE56BB4F2D913C911197D5
S11359202115310581F4CD93DC938E85E82FFF2773
S1135930EE0FFF1FEE0FFF1FEE56FB4FD383C28304
S1135940398B288B0BC0FD0182819381FC01D18BA3
S1135950C08BFD01D383C283198A188A82E08C87A5
S113596088858D8780910C0499270E947F2BDF9175
S1135970CF910895282FE0918605F0918705118A2B
S1135980108A83E08487E0918605F09187058585F8
S11359909927AA27BB2780879187A287B387158673
S11359A080910C04622F99270E947F2B0895CF9336
S11359B0C82F823008F0C0E00E94D834282FE0912C
S11359C08605F0918705118A108A83E08487E09127
S11359D08605F091870585859927AA27BB278087A7
S11359E09187A287B387C58780910C04622F99277A
S11359F00E947F2BCF910895CF93DF93BC01C09178
S1135A00A604D091A704FE01209711F19B0144271D
S1135A10552780859185A285B38582179307A407AE
S1135A20B50748F0821B930BA40BB50B80879187B5
S1135A30A287B3870DC080859185681B790B10867A
S1135A401186128613860088F189E02D3097F1F6CD
S1135A50D0931104C0931004209709F451C0888591
S1135A609985AA85BB850097A105B10509F048C0B1
S1135A7086EA94E00E943034FC0190939104809370
S1135A80900482E08487C0919004D09191048E8523
S1135A90A82FBB27AA0FBB1FAA0FBB1FAE56BB4F15
S1135AA02D913C9111972115310581F4CD93DC930F
S1135AB08E85E82FFF27EE0FFF1FEE0FFF1FEE5618
S1135AC0FB4FD383C283398B288B0BC0FD018281AA
S1135AD09381FC01D18BC08BFD01D383C283198ACE
S1135AE0188AE091A604F091A704F0931104E093BE
S1135AF01004309729F080859185A285B385B3CFB2
S1135B000E94D52ADF91CF910895CF93DF93682F18
S1135B10C091A604D091A7042097E1F0282F332741
S1135B204427552788859985AA85BB8582179307BD
S1135B30A407B50779F4E0918605F0918705968569
S1135B408E85891738F4862F99270E94FC2C81E0D2
S1135B5090E002C080E090E0DF91CF9108950E9430
S1135B60D83495B7906295BF95B7937E95BF7894D6
S1135B7088958FBF08951F93CF93DF93C091A60498
S1135B80D091A704209709F488C088859985AA85AF
S1135B90BB858E97A105B10520F00E949931892B10
S1135BA011F010E012C010911F0491E0E7E2F4E05C
S1135BB08485882331F08585811718F4182F88236C
S1135BC021F09F5F7596963098F30E94D834982FF1
S1135BD0212F33272130310571F485B7886385BFC0
S1135BE085B78B7F85BF87B78F7E87BF10920E04E2
S1135BF010920D0406C085B7806285BF85B7837E89
S1135C0085BF9FBF222309F448C0688579858A85AA
S1135C109B8561342FE1720720E0820720E0920720
S1135C2020F02FEF80E49FE11AC06F507040804055
S1135C309040E2E0660F771F881F991FEA95D1F71D
S1135C402DE730E040E050E00E941D398DE7289FA9
S1135C50C001112495958795959587950F969093F6
S1135C60850580938405822F992712BE81BF00B6D3
S1135C7001FCFDCF00B602FCFACF0E94D834982F65
S1135C8087B7826087BF80B5846080BD789488952B
S1135C909FBF80B58B7F80BD71CF0E94AF2D6ECF2B
S1135CA081E080930F040E94DD340E94F7347894DD
S1135CB00E94D52A0E94BB2D0895DF92EF92FF9295
S1135CC00F931F93CF93DF937C01EB01042F603478
S1135CD0710510F4C0E4D0E0053018F083E090E0E2
S1135CE0ABC00E94D834D82E10E0EEE1F4E08081FD
